{
  "contractName": "DLL",
  "abi": [
    {
      "constant": true,
      "inputs": [
        {
          "name": "self",
          "type": "DLL.Data storage"
        }
      ],
      "name": "isEmpty",
      "outputs": [
        {
          "name": "",
          "type": "bool"
        }
      ],
      "payable": false,
      "stateMutability": "view",
      "type": "function",
      "signature": "0xc426b006"
    },
    {
      "constant": true,
      "inputs": [
        {
          "name": "self",
          "type": "DLL.Data storage"
        },
        {
          "name": "_curr",
          "type": "uint256"
        }
      ],
      "name": "contains",
      "outputs": [
        {
          "name": "",
          "type": "bool"
        }
      ],
      "payable": false,
      "stateMutability": "view",
      "type": "function",
      "signature": "0x366a5ba2"
    },
    {
      "constant": true,
      "inputs": [
        {
          "name": "self",
          "type": "DLL.Data storage"
        },
        {
          "name": "_curr",
          "type": "uint256"
        }
      ],
      "name": "getNext",
      "outputs": [
        {
          "name": "",
          "type": "uint256"
        }
      ],
      "payable": false,
      "stateMutability": "view",
      "type": "function",
      "signature": "0x07d29ac9"
    },
    {
      "constant": true,
      "inputs": [
        {
          "name": "self",
          "type": "DLL.Data storage"
        },
        {
          "name": "_curr",
          "type": "uint256"
        }
      ],
      "name": "getPrev",
      "outputs": [
        {
          "name": "",
          "type": "uint256"
        }
      ],
      "payable": false,
      "stateMutability": "view",
      "type": "function",
      "signature": "0x30fe0a0a"
    },
    {
      "constant": true,
      "inputs": [
        {
          "name": "self",
          "type": "DLL.Data storage"
        }
      ],
      "name": "getStart",
      "outputs": [
        {
          "name": "",
          "type": "uint256"
        }
      ],
      "payable": false,
      "stateMutability": "view",
      "type": "function",
      "signature": "0xee4f1ac4"
    },
    {
      "constant": true,
      "inputs": [
        {
          "name": "self",
          "type": "DLL.Data storage"
        }
      ],
      "name": "getEnd",
      "outputs": [
        {
          "name": "",
          "type": "uint256"
        }
      ],
      "payable": false,
      "stateMutability": "view",
      "type": "function",
      "signature": "0x7c11cf64"
    },
    {
      "constant": false,
      "inputs": [
        {
          "name": "self",
          "type": "DLL.Data storage"
        },
        {
          "name": "_prev",
          "type": "uint256"
        },
        {
          "name": "_curr",
          "type": "uint256"
        },
        {
          "name": "_next",
          "type": "uint256"
        },
        {
          "name": "_timestamp",
          "type": "uint256"
        },
        {
          "name": "_digest",
          "type": "bytes32"
        },
        {
          "name": "_hashFunction",
          "type": "uint256"
        },
        {
          "name": "_size",
          "type": "uint256"
        }
      ],
      "name": "insert",
      "outputs": [],
      "payable": false,
      "stateMutability": "nonpayable",
      "type": "function",
      "signature": "0xa751bc0e"
    },
    {
      "constant": false,
      "inputs": [
        {
          "name": "self",
          "type": "DLL.Data storage"
        },
        {
          "name": "_curr",
          "type": "uint256"
        }
      ],
      "name": "remove",
      "outputs": [],
      "payable": false,
      "stateMutability": "nonpayable",
      "type": "function",
      "signature": "0x6d900ed0"
    }
  ],
  "bytecode": "0x610685610030600b82828239805160001a6073146000811461002057610022565bfe5b5030600052607381538281f3fe73000000000000000000000000000000000000000030146080604052600436106100a5576000357c0100000000000000000000000000000000000000000000000000000000900463ffffffff16806307d29ac9146100aa57806330fe0a0a146100f6578063366a5ba2146101425780636d900ed0146101925780637c11cf64146101d7578063a751bc0e14610219578063c426b0061461029b578063ee4f1ac4146102e1575b600080fd5b6100e0600480360360408110156100c057600080fd5b810190808035906020019092919080359060200190929190505050610323565b6040518082815260200191505060405180910390f35b61012c6004803603604081101561010c57600080fd5b810190808035906020019092919080359060200190929190505050610346565b6040518082815260200191505060405180910390f35b6101786004803603604081101561015857600080fd5b810190808035906020019092919080359060200190929190505050610369565b604051808215151515815260200191505060405180910390f35b81801561019e57600080fd5b506101d5600480360360408110156101b557600080fd5b8101908080359060200190929190803590602001909291905050506103e9565b005b610203600480360360208110156101ed57600080fd5b81019080803590602001909291905050506104a3565b6040518082815260200191505060405180910390f35b81801561022557600080fd5b50610299600480360361010081101561023d57600080fd5b8101908080359060200190929190803590602001909291908035906020019092919080359060200190929190803590602001909291908035906020019092919080359060200190929190803590602001909291905050506104b7565b005b6102c7600480360360208110156102b157600080fd5b8101908080359060200190929190505050610631565b604051808215151515815260200191505060405180910390f35b61030d600480360360208110156102f757600080fd5b8101908080359060200190929190505050610645565b6040518082815260200191505060405180910390f35b600082600001600083815260200190815260200160002060000154905092915050565b600082600001600083815260200190815260200160002060010154905092915050565b600061037483610631565b8061037f5750600082145b1561038d57600090506103e3565b60008261039985610645565b1480156103ad5750826103ab856104a3565b145b90506000806103bc8686610323565b1480156103d2575060006103d08686610346565b145b905081806103de575080155b925050505b92915050565b6103f38282610369565b15156103fe5761049f565b600061040a8383610323565b905060006104188484610346565b90508084600001600084815260200190815260200160002060010181905550818460000160008381526020019081526020016000206000018190555083600001600084815260200190815260200160002060008082016000905560018201600090556002820160009055600382016000905560048201600090556005820160009055505050505b5050565b60006104b0826000610346565b9050919050565b600086141515156104c757600080fd5b6104d188876103e9565b60008714806104e657506104e58888610369565b5b15156104f157600080fd5b600085148061050657506105058886610369565b5b151561051157600080fd5b8461051c8989610323565b14151561052857600080fd5b866105338987610346565b14151561053f57600080fd5b868860000160008881526020019081526020016000206001018190555084886000016000888152602001908152602001600020600001819055508388600001600088815260200190815260200160002060020181905550828860000160008881526020019081526020016000206003018190555081886000016000888152602001908152602001600020600401819055508088600001600088815260200190815260200160002060050181905550858860000160008981526020019081526020016000206000018190555085886000016000878152602001908152602001600020600101819055505050505050505050565b60008061063d83610645565b149050919050565b6000610652826000610323565b905091905056fea165627a7a72305820d4eb78d2623e1c293843142af66446cbd68d458d6c48f6056b906439fdb8ee280029",
  "source": "pragma solidity ^0.5.0;\n\n/** @title Double Link List library\n *  @notice inspired by work found in https://github.com/skmgoldin/sol-dll\n */\nlibrary DLL {\n\n    uint constant NULL_NODE_ID = 0;\n\n    /// IPFS Multihash\n    struct Node {\n        uint next;\n        uint prev;\n        uint256 timestamp;\n        bytes32 digest;\n        uint hashFunction;\n        uint size;\n    }\n\n    /// DLL Structure\n    struct Data {\n        mapping(uint => Node) dll;\n    }\n\n    /**\n     * @dev check if list is isEmpty (only NULL node is present)\n     * @param self DLL\n     * @return bool true if exists\n     */\n    function isEmpty(Data storage self) public view returns (bool) {\n        return getStart(self) == NULL_NODE_ID;\n    }\n\n    /**\n     * @dev check if certain node has data\n     * @param self DLL\n     * @param _curr node id to find\n     * @return bool true if node is in the DLL\n     */\n    function contains(Data storage self, uint _curr) public view returns (bool) {\n        if (isEmpty(self) || _curr == NULL_NODE_ID) {\n          return false;\n        }\n\n        bool isSingleNode = (getStart(self) == _curr) && (getEnd(self) == _curr);\n        bool isNullNode = (getNext(self, _curr) == NULL_NODE_ID) && (getPrev(self, _curr) == NULL_NODE_ID);\n        return isSingleNode || !isNullNode;\n    }\n\n    /**\n     * @dev Get next node in DLL\n     * @param self DLL\n     * @param _curr current Node\n     * @return int next node id\n     */\n    function getNext(Data storage self, uint _curr) public view returns (uint) {\n        return self.dll[_curr].next;\n    }\n\n    /**\n     * @dev Get prev node in DLL\n     * @param self DLL\n     * @param _curr current Node\n     * @return int previous node id\n     */\n    function getPrev(Data storage self, uint _curr) public view returns (uint) {\n        return self.dll[_curr].prev;\n    }\n\n    /**\n     * @dev Get initial node in DLL\n     * @param self DLL\n     * @return initial node id\n     */\n    function getStart(Data storage self) public view returns (uint) {\n        return getNext(self, NULL_NODE_ID);\n    }\n\n    /**\n     * @dev Get final node in DLL\n     * @param self DLL\n     * @return final node id\n     */\n    function getEnd(Data storage self) public view returns (uint) {\n        return getPrev(self, NULL_NODE_ID);\n    }\n\n    /**\n     * @dev Inserts a new node between _prev and _next. When inserting a node already existing in\n     * the list it will be automatically removed from the old position.\n     * @param self DLL\n     * @param _prev the node which _new will be inserted after\n     * @param _curr the id of the new node being inserted\n     * @param _next the node which _new will be inserted before\n     * @param _timestamp timestamp of node being inserted\n     * @param _digest digest of IPFS Multihash\n     * @param _hashFunction hashFcn of IPFS Multihash\n     * @param _size size of IPFS Multihash\n     */\n    function insert(Data storage self, uint _prev, uint _curr, uint _next,\n        uint256 _timestamp, bytes32 _digest, uint _hashFunction, uint _size) public {\n\n        require(_curr != NULL_NODE_ID);\n\n        remove(self, _curr);\n\n        require(_prev == NULL_NODE_ID || contains(self, _prev));\n        require(_next == NULL_NODE_ID || contains(self, _next));\n\n        require(getNext(self, _prev) == _next);\n        require(getPrev(self, _next) == _prev);\n\n        self.dll[_curr].prev = _prev;\n        self.dll[_curr].next = _next;\n        /// Fill custom IPFS Multihash data\n        self.dll[_curr].timestamp = _timestamp;\n        self.dll[_curr].digest = _digest;\n        self.dll[_curr].hashFunction = _hashFunction;\n        self.dll[_curr].size = _size;\n\n        self.dll[_prev].next = _curr;\n        self.dll[_next].prev = _curr;\n    }\n\n    /**\n     * @dev remove a node from DLL\n     * @param self DLL\n     * @param _curr id of node to remove\n     */\n    function remove(Data storage self, uint _curr) public {\n        if (!contains(self, _curr)) {\n          return;\n        }\n\n        uint next = getNext(self, _curr);\n        uint prev = getPrev(self, _curr);\n\n        self.dll[next].prev = prev;\n        self.dll[prev].next = next;\n\n        delete self.dll[_curr];\n    }\n}\n",
  "sourcePath": "/Users/santteegt/Consensys-Academy/Resources/Final project/truffle-react/contracts/DLL.sol",
  "compiler": {
    "name": "solc",
    "version": "0.5.0+commit.1d4f565a.Emscripten.clang"
  },
  "schemaVersion": "3.0.1",
  "updatedAt": "2019-01-28T00:19:28.856Z",
  "devdoc": {
    "methods": {
      "contains(DLL.Data storage,uint256)": {
        "details": "check if certain node has data",
        "params": {
          "_curr": "node id to find",
          "self": "DLL"
        },
        "return": "bool true if node is in the DLL"
      },
      "getEnd(DLL.Data storage)": {
        "details": "Get final node in DLL",
        "params": {
          "self": "DLL"
        },
        "return": "final node id"
      },
      "getNext(DLL.Data storage,uint256)": {
        "details": "Get next node in DLL",
        "params": {
          "_curr": "current Node",
          "self": "DLL"
        },
        "return": "int next node id"
      },
      "getPrev(DLL.Data storage,uint256)": {
        "details": "Get prev node in DLL",
        "params": {
          "_curr": "current Node",
          "self": "DLL"
        },
        "return": "int previous node id"
      },
      "getStart(DLL.Data storage)": {
        "details": "Get initial node in DLL",
        "params": {
          "self": "DLL"
        },
        "return": "initial node id"
      },
      "insert(DLL.Data storage,uint256,uint256,uint256,uint256,bytes32,uint256,uint256)": {
        "details": "Inserts a new node between _prev and _next. When inserting a node already existing in the list it will be automatically removed from the old position.",
        "params": {
          "_curr": "the id of the new node being inserted",
          "_digest": "digest of IPFS Multihash",
          "_hashFunction": "hashFcn of IPFS Multihash",
          "_next": "the node which _new will be inserted before",
          "_prev": "the node which _new will be inserted after",
          "_size": "size of IPFS Multihash",
          "_timestamp": "timestamp of node being inserted",
          "self": "DLL"
        }
      },
      "isEmpty(DLL.Data storage)": {
        "details": "check if list is isEmpty (only NULL node is present)",
        "params": {
          "self": "DLL"
        },
        "return": "bool true if exists"
      },
      "remove(DLL.Data storage,uint256)": {
        "details": "remove a node from DLL",
        "params": {
          "_curr": "id of node to remove",
          "self": "DLL"
        }
      }
    },
    "title": "Double Link List library"
  },
  "userdoc": {
    "methods": {},
    "notice": "inspired by work found in https://github.com/skmgoldin/sol-dll"
  }
}