{
  "contractName": "Publisher",
  "abi": [
    {
      "constant": true,
      "inputs": [
        {
          "name": "",
          "type": "address"
        }
      ],
      "name": "relayers",
      "outputs": [
        {
          "name": "active",
          "type": "bool"
        },
        {
          "name": "expendedGas",
          "type": "uint256"
        }
      ],
      "payable": false,
      "stateMutability": "view",
      "type": "function",
      "signature": "0x5300f841"
    },
    {
      "constant": true,
      "inputs": [
        {
          "name": "",
          "type": "address"
        }
      ],
      "name": "subscribers",
      "outputs": [
        {
          "name": "active",
          "type": "bool"
        },
        {
          "name": "subType",
          "type": "uint8"
        },
        {
          "name": "amount",
          "type": "uint256"
        }
      ],
      "payable": false,
      "stateMutability": "view",
      "type": "function",
      "signature": "0x5745ae28"
    },
    {
      "constant": false,
      "inputs": [],
      "name": "renounceOwnership",
      "outputs": [],
      "payable": false,
      "stateMutability": "nonpayable",
      "type": "function",
      "signature": "0x715018a6"
    },
    {
      "constant": true,
      "inputs": [],
      "name": "owner",
      "outputs": [
        {
          "name": "",
          "type": "address"
        }
      ],
      "payable": false,
      "stateMutability": "view",
      "type": "function",
      "signature": "0x8da5cb5b"
    },
    {
      "constant": true,
      "inputs": [],
      "name": "totalPosts",
      "outputs": [
        {
          "name": "",
          "type": "uint256"
        }
      ],
      "payable": false,
      "stateMutability": "view",
      "type": "function",
      "signature": "0x8e53fb41"
    },
    {
      "constant": true,
      "inputs": [],
      "name": "isOwner",
      "outputs": [
        {
          "name": "",
          "type": "bool"
        }
      ],
      "payable": false,
      "stateMutability": "view",
      "type": "function",
      "signature": "0x8f32d59b"
    },
    {
      "constant": true,
      "inputs": [],
      "name": "tokenAddress",
      "outputs": [
        {
          "name": "",
          "type": "address"
        }
      ],
      "payable": false,
      "stateMutability": "view",
      "type": "function",
      "signature": "0x9d76ea58"
    },
    {
      "constant": false,
      "inputs": [
        {
          "name": "newOwner",
          "type": "address"
        }
      ],
      "name": "transferOwnership",
      "outputs": [],
      "payable": false,
      "stateMutability": "nonpayable",
      "type": "function",
      "signature": "0xf2fde38b"
    },
    {
      "inputs": [
        {
          "name": "_defaultRelayAddress",
          "type": "address"
        },
        {
          "name": "_tokenAddress",
          "type": "address"
        }
      ],
      "payable": false,
      "stateMutability": "nonpayable",
      "type": "constructor",
      "signature": "constructor"
    },
    {
      "anonymous": false,
      "inputs": [
        {
          "indexed": false,
          "name": "id",
          "type": "uint256"
        },
        {
          "indexed": false,
          "name": "digest",
          "type": "bytes32"
        },
        {
          "indexed": false,
          "name": "hashFunction",
          "type": "uint256"
        },
        {
          "indexed": false,
          "name": "size",
          "type": "uint256"
        }
      ],
      "name": "PostAdded",
      "type": "event",
      "signature": "0x60fc74839916716ea19c33bfece681e6f42febd6a25b4cc74a4e854aa7b00dfe"
    },
    {
      "anonymous": false,
      "inputs": [
        {
          "indexed": false,
          "name": "id",
          "type": "uint256"
        },
        {
          "indexed": false,
          "name": "digest",
          "type": "bytes32"
        },
        {
          "indexed": false,
          "name": "hashFunction",
          "type": "uint256"
        },
        {
          "indexed": false,
          "name": "size",
          "type": "uint256"
        }
      ],
      "name": "PostUpdated",
      "type": "event",
      "signature": "0x2f66ee066ab42d23182b8a15dd5d2892f6d4176ced11db59332e2b39a0fb45c6"
    },
    {
      "anonymous": false,
      "inputs": [
        {
          "indexed": false,
          "name": "id",
          "type": "uint256"
        },
        {
          "indexed": false,
          "name": "digest",
          "type": "bytes32"
        },
        {
          "indexed": false,
          "name": "hashFunction",
          "type": "uint256"
        },
        {
          "indexed": false,
          "name": "size",
          "type": "uint256"
        }
      ],
      "name": "PostDeleted",
      "type": "event",
      "signature": "0xb75f5b41e217ede48f327bc595bf0d55bff31a17d64a27b41a467486c4571340"
    },
    {
      "anonymous": false,
      "inputs": [
        {
          "indexed": false,
          "name": "subscriber",
          "type": "address"
        },
        {
          "indexed": false,
          "name": "subType",
          "type": "uint8"
        },
        {
          "indexed": false,
          "name": "tokenAmount",
          "type": "uint256"
        }
      ],
      "name": "Subscribed",
      "type": "event",
      "signature": "0x044f95a2d17727b5b87e4f23d70278b59a2b0b285289cc9021cac8cdba4797b7"
    },
    {
      "anonymous": false,
      "inputs": [
        {
          "indexed": false,
          "name": "subscriber",
          "type": "address"
        },
        {
          "indexed": false,
          "name": "subType",
          "type": "uint8"
        },
        {
          "indexed": false,
          "name": "tokenAmount",
          "type": "uint256"
        }
      ],
      "name": "Unsubscribed",
      "type": "event",
      "signature": "0x8dc95e0144bb8359356be084f006699cfc57c624fdc213cf051509186e739d27"
    },
    {
      "anonymous": false,
      "inputs": [
        {
          "indexed": true,
          "name": "previousOwner",
          "type": "address"
        },
        {
          "indexed": true,
          "name": "newOwner",
          "type": "address"
        }
      ],
      "name": "OwnershipTransferred",
      "type": "event",
      "signature": "0x8be0079c531659141344cd1fd0a4f28419497f9722a3daafe3b4186f6b6457e0"
    },
    {
      "constant": false,
      "inputs": [
        {
          "name": "_digest",
          "type": "bytes32"
        },
        {
          "name": "_hashFunction",
          "type": "uint256"
        },
        {
          "name": "_size",
          "type": "uint256"
        }
      ],
      "name": "addPost",
      "outputs": [],
      "payable": false,
      "stateMutability": "nonpayable",
      "type": "function",
      "signature": "0xc699863d"
    },
    {
      "constant": true,
      "inputs": [
        {
          "name": "_id",
          "type": "uint32"
        }
      ],
      "name": "getPost",
      "outputs": [
        {
          "name": "",
          "type": "uint256"
        },
        {
          "name": "",
          "type": "uint256"
        },
        {
          "name": "",
          "type": "bytes32"
        },
        {
          "name": "",
          "type": "uint256"
        },
        {
          "name": "",
          "type": "uint256"
        },
        {
          "name": "",
          "type": "uint256"
        }
      ],
      "payable": false,
      "stateMutability": "view",
      "type": "function",
      "signature": "0xd5e6c5a1"
    },
    {
      "constant": false,
      "inputs": [
        {
          "name": "_id",
          "type": "uint256"
        },
        {
          "name": "_digest",
          "type": "bytes32"
        },
        {
          "name": "_hashFunction",
          "type": "uint256"
        },
        {
          "name": "_size",
          "type": "uint256"
        }
      ],
      "name": "updatePost",
      "outputs": [
        {
          "name": "",
          "type": "bool"
        }
      ],
      "payable": false,
      "stateMutability": "nonpayable",
      "type": "function",
      "signature": "0xb6ad8a8b"
    },
    {
      "constant": false,
      "inputs": [
        {
          "name": "_id",
          "type": "uint256"
        }
      ],
      "name": "deletePost",
      "outputs": [
        {
          "name": "",
          "type": "bool"
        }
      ],
      "payable": false,
      "stateMutability": "nonpayable",
      "type": "function",
      "signature": "0x094cd5ee"
    },
    {
      "constant": false,
      "inputs": [
        {
          "name": "_subscription",
          "type": "address"
        },
        {
          "name": "_subType",
          "type": "uint8"
        }
      ],
      "name": "subscribe",
      "outputs": [],
      "payable": false,
      "stateMutability": "nonpayable",
      "type": "function",
      "signature": "0xdce69665"
    },
    {
      "constant": false,
      "inputs": [
        {
          "name": "_subscription",
          "type": "address"
        }
      ],
      "name": "unsubscribe",
      "outputs": [],
      "payable": false,
      "stateMutability": "nonpayable",
      "type": "function",
      "signature": "0x7262561c"
    },
    {
      "constant": true,
      "inputs": [
        {
          "name": "_relay",
          "type": "address"
        }
      ],
      "name": "isActiveRelay",
      "outputs": [
        {
          "name": "",
          "type": "bool"
        }
      ],
      "payable": false,
      "stateMutability": "view",
      "type": "function",
      "signature": "0x16123c6b"
    }
  ],
  "bytecode": "0x608060405234801561001057600080fd5b50604051604080611c4d8339810180604052604081101561003057600080fd5b810190808051906020019092919080519060200190929190505050336000806101000a81548173ffffffffffffffffffffffffffffffffffffffff021916908373ffffffffffffffffffffffffffffffffffffffff1602179055506000809054906101000a900473ffffffffffffffffffffffffffffffffffffffff1673ffffffffffffffffffffffffffffffffffffffff16600073ffffffffffffffffffffffffffffffffffffffff167f8be0079c531659141344cd1fd0a4f28419497f9722a3daafe3b4186f6b6457e060405160405180910390a38061013a8173ffffffffffffffffffffffffffffffffffffffff1661021b640100000000026118d7176401000000009004565b151561014557600080fd5b60408051908101604052806001151581526020016000815250600260008573ffffffffffffffffffffffffffffffffffffffff1673ffffffffffffffffffffffffffffffffffffffff16815260200190815260200160002060008201518160000160006101000a81548160ff0219169083151502179055506020820151816001015590505081600360006101000a81548173ffffffffffffffffffffffffffffffffffffffff021916908373ffffffffffffffffffffffffffffffffffffffff160217905550600060058190555050505061022e565b600080823b905060008111915050919050565b611a108061023d6000396000f3fe6080604052600436106100db576000357c0100000000000000000000000000000000000000000000000000000000900463ffffffff168063094cd5ee146100e057806316123c6b146101335780635300f8411461019c5780635745ae281461020c578063715018a6146102915780637262561c146102a85780638da5cb5b146102f95780638e53fb41146103505780638f32d59b1461037b5780639d76ea58146103aa578063b6ad8a8b14610401578063c699863d14610472578063d5e6c5a1146104c1578063dce6966514610539578063f2fde38b14610597575b600080fd5b3480156100ec57600080fd5b506101196004803603602081101561010357600080fd5b81019080803590602001909291905050506105e8565b604051808215151515815260200191505060405180910390f35b34801561013f57600080fd5b506101826004803603602081101561015657600080fd5b81019080803573ffffffffffffffffffffffffffffffffffffffff16906020019092919050505061071d565b604051808215151515815260200191505060405180910390f35b3480156101a857600080fd5b506101eb600480360360208110156101bf57600080fd5b81019080803573ffffffffffffffffffffffffffffffffffffffff1690602001909291905050506107e7565b60405180831515151581526020018281526020019250505060405180910390f35b34801561021857600080fd5b5061025b6004803603602081101561022f57600080fd5b81019080803573ffffffffffffffffffffffffffffffffffffffff169060200190929190505050610818565b604051808415151515815260200183600181111561027557fe5b60ff168152602001828152602001935050505060405180910390f35b34801561029d57600080fd5b506102a661085c565b005b3480156102b457600080fd5b506102f7600480360360208110156102cb57600080fd5b81019080803573ffffffffffffffffffffffffffffffffffffffff16906020019092919050505061092e565b005b34801561030557600080fd5b5061030e610c45565b604051808273ffffffffffffffffffffffffffffffffffffffff1673ffffffffffffffffffffffffffffffffffffffff16815260200191505060405180910390f35b34801561035c57600080fd5b50610365610c6e565b6040518082815260200191505060405180910390f35b34801561038757600080fd5b50610390610c74565b604051808215151515815260200191505060405180910390f35b3480156103b657600080fd5b506103bf610ccb565b604051808273ffffffffffffffffffffffffffffffffffffffff1673ffffffffffffffffffffffffffffffffffffffff16815260200191505060405180910390f35b34801561040d57600080fd5b506104586004803603608081101561042457600080fd5b8101908080359060200190929190803590602001909291908035906020019092919080359060200190929190505050610cf1565b604051808215151515815260200191505060405180910390f35b34801561047e57600080fd5b506104bf6004803603606081101561049557600080fd5b81019080803590602001909291908035906020019092919080359060200190929190505050610d97565b005b3480156104cd57600080fd5b50610500600480360360208110156104e457600080fd5b81019080803563ffffffff16906020019092919050505061106b565b60405180878152602001868152602001858152602001848152602001838152602001828152602001965050505050505060405180910390f35b34801561054557600080fd5b506105956004803603604081101561055c57600080fd5b81019080803573ffffffffffffffffffffffffffffffffffffffff169060200190929190803560ff1690602001909291905050506110c8565b005b3480156105a357600080fd5b506105e6600480360360208110156105ba57600080fd5b81019080803573ffffffffffffffffffffffffffffffffffffffff1690602001909291905050506118b8565b005b60006105f2610c74565b15156105fd57600080fd5b6000600460000160008481526020019081526020016000209050600473__DLL___________________________________636d900ed09091856040518363ffffffff167c0100000000000000000000000000000000000000000000000000000000028152600401808381526020018281526020019250505060006040518083038186803b15801561068d57600080fd5b505af41580156106a1573d6000803e3d6000fd5b50505050600560008154809291906001900391905055507fb75f5b41e217ede48f327bc595bf0d55bff31a17d64a27b41a467486c4571340838260030154836004015484600501546040518085815260200184815260200183815260200182815260200194505050505060405180910390a16001915050919050565b6000600160008373ffffffffffffffffffffffffffffffffffffffff1673ffffffffffffffffffffffffffffffffffffffff16815260200190815260200160002060000160009054906101000a900460ff1680156107e057506000600181111561078357fe5b600160008473ffffffffffffffffffffffffffffffffffffffff1673ffffffffffffffffffffffffffffffffffffffff16815260200190815260200160002060000160019054906101000a900460ff1660018111156107de57fe5b145b9050919050565b60026020528060005260406000206000915090508060000160009054906101000a900460ff16908060010154905082565b60016020528060005260406000206000915090508060000160009054906101000a900460ff16908060000160019054906101000a900460ff16908060010154905083565b610864610c74565b151561086f57600080fd5b600073ffffffffffffffffffffffffffffffffffffffff166000809054906101000a900473ffffffffffffffffffffffffffffffffffffffff1673ffffffffffffffffffffffffffffffffffffffff167f8be0079c531659141344cd1fd0a4f28419497f9722a3daafe3b4186f6b6457e060405160405180910390a360008060006101000a81548173ffffffffffffffffffffffffffffffffffffffff021916908373ffffffffffffffffffffffffffffffffffffffff160217905550565b8061094e8173ffffffffffffffffffffffffffffffffffffffff166118d7565b151561095957600080fd5b813373ffffffffffffffffffffffffffffffffffffffff168173ffffffffffffffffffffffffffffffffffffffff166320e036306040518163ffffffff167c010000000000000000000000000000000000000000000000000000000002815260040160206040518083038186803b1580156109d357600080fd5b505afa1580156109e7573d6000803e3d6000fd5b505050506040513d60208110156109fd57600080fd5b810190808051906020019092919050505073ffffffffffffffffffffffffffffffffffffffff16141515610a3057600080fd5b600160008473ffffffffffffffffffffffffffffffffffffffff1673ffffffffffffffffffffffffffffffffffffffff16815260200190815260200160002060000160009054906101000a900460ff161515610af4576040517f08c379a000000000000000000000000000000000000000000000000000000000815260040180806020018281038252601a8152602001807f537562736372697074696f6e206973206e6f742061637469766500000000000081525060200191505060405180910390fd5b6000600160008573ffffffffffffffffffffffffffffffffffffffff1673ffffffffffffffffffffffffffffffffffffffff16815260200190815260200160002090507f8dc95e0144bb8359356be084f006699cfc57c624fdc213cf051509186e739d27848260000160019054906101000a900460ff168360010154604051808473ffffffffffffffffffffffffffffffffffffffff1673ffffffffffffffffffffffffffffffffffffffff168152602001836001811115610bb257fe5b60ff168152602001828152602001935050505060405180910390a1600160008573ffffffffffffffffffffffffffffffffffffffff1673ffffffffffffffffffffffffffffffffffffffff168152602001908152602001600020600080820160006101000a81549060ff02191690556000820160016101000a81549060ff02191690556001820160009055505050505050565b60008060009054906101000a900473ffffffffffffffffffffffffffffffffffffffff16905090565b60055481565b60008060009054906101000a900473ffffffffffffffffffffffffffffffffffffffff1673ffffffffffffffffffffffffffffffffffffffff163373ffffffffffffffffffffffffffffffffffffffff1614905090565b600360009054906101000a900473ffffffffffffffffffffffffffffffffffffffff1681565b6000610cfb610c74565b1515610d0657600080fd5b60006004600001600087815260200190815260200160002090508481600301819055508381600401819055508281600501819055507f2f66ee066ab42d23182b8a15dd5d2892f6d4176ced11db59332e2b39a0fb45c6868686866040518085815260200184815260200183815260200182815260200194505050505060405180910390a16001915050949350505050565b610d9f610c74565b1515610daa57600080fd5b600473__DLL___________________________________63c426b00690916040518263ffffffff167c01000000000000000000000000000000000000000000000000000000000281526004018082815260200191505060206040518083038186803b158015610e1857600080fd5b505af4158015610e2c573d6000803e3d6000fd5b505050506040513d6020811015610e4257600080fd5b810190808051906020019092919050505015610f2257600473__DLL___________________________________63a751bc0e909160006001600554016000428989896040518963ffffffff167c0100000000000000000000000000000000000000000000000000000000028152600401808981526020018881526020018781526020018681526020018581526020018481526020018381526020018281526020019850505050505050505060006040518083038186803b158015610f0557600080fd5b505af4158015610f19573d6000803e3d6000fd5b50505050611003565b600473__DLL___________________________________63a751bc0e909160055460016005540160046000016000600554815260200190815260200160002060010154428989896040518963ffffffff167c0100000000000000000000000000000000000000000000000000000000028152600401808981526020018881526020018781526020018681526020018581526020018481526020018381526020018281526020019850505050505050505060006040518083038186803b158015610fea57600080fd5b505af4158015610ffe573d6000803e3d6000fd5b505050505b6005600081548092919060010191905055507f60fc74839916716ea19c33bfece681e6f42febd6a25b4cc74a4e854aa7b00dfe6005548484846040518085815260200184815260200183815260200182815260200194505050505060405180910390a1505050565b6000806000806000806000600460000160008963ffffffff16815260200190815260200160002090508060010154816000015482600301548360040154846005015485600201549650965096509650965096505091939550919395565b816110e88173ffffffffffffffffffffffffffffffffffffffff166118d7565b15156110f357600080fd5b823373ffffffffffffffffffffffffffffffffffffffff168173ffffffffffffffffffffffffffffffffffffffff166320e036306040518163ffffffff167c010000000000000000000000000000000000000000000000000000000002815260040160206040518083038186803b15801561116d57600080fd5b505afa158015611181573d6000803e3d6000fd5b505050506040513d602081101561119757600080fd5b810190808051906020019092919050505073ffffffffffffffffffffffffffffffffffffffff161415156111ca57600080fd5b8260018111156111d657fe5b6001808111156111e257fe5b60ff168160ff1614806112065750600060018111156111fd57fe5b60ff168160ff16145b151561127a576040517f08c379a000000000000000000000000000000000000000000000000000000000815260040180806020018281038252601f8152602001807f53756273637269626572206d7573742062652046414e206f722052454c41590081525060200191505060405180910390fd5b6000600181111561128757fe5b84600181111561129357fe5b141561155057600260008673ffffffffffffffffffffffffffffffffffffffff1673ffffffffffffffffffffffffffffffffffffffff16815260200190815260200160002060000160009054906101000a900460ff16151515611384576040517f08c379a00000000000000000000000000000000000000000000000000000000081526004018080602001828103825260258152602001807f52656c61796572207375627363726962657220616c726561647920726567697381526020017f746572656400000000000000000000000000000000000000000000000000000081525060400191505060405180910390fd5b6060604051908101604052806001151581526020018560018111156113a557fe5b81526020016000815250600160008773ffffffffffffffffffffffffffffffffffffffff1673ffffffffffffffffffffffffffffffffffffffff16815260200190815260200160002060008201518160000160006101000a81548160ff02191690831515021790555060208201518160000160016101000a81548160ff0219169083600181111561143257fe5b02179055506040820151816001015590505060408051908101604052806001151581526020016000815250600260008773ffffffffffffffffffffffffffffffffffffffff1673ffffffffffffffffffffffffffffffffffffffff16815260200190815260200160002060008201518160000160006101000a81548160ff021916908315150217905550602082015181600101559050507f044f95a2d17727b5b87e4f23d70278b59a2b0b285289cc9021cac8cdba4797b785856000604051808473ffffffffffffffffffffffffffffffffffffffff1673ffffffffffffffffffffffffffffffffffffffff16815260200183600181111561153057fe5b60ff168152602001828152602001935050505060405180910390a16118b1565b600160008673ffffffffffffffffffffffffffffffffffffffff1673ffffffffffffffffffffffffffffffffffffffff16815260200190815260200160002060000160009054906101000a900460ff16151515611615576040517f08c379a000000000000000000000000000000000000000000000000000000000815260040180806020018281038252601d8152602001807f5375627363726962657220616c7265616479207265676973746572656400000081525060200191505060405180910390fd5b6116348573ffffffffffffffffffffffffffffffffffffffff166118d7565b15156116ce576040517f08c379a00000000000000000000000000000000000000000000000000000000081526004018080602001828103825260308152602001807f41646472657373206d7573742062652061205075626c6973686572537562736381526020017f72697074696f6e20636f6e74726163740000000000000000000000000000000081525060400191505060405180910390fd5b60008573ffffffffffffffffffffffffffffffffffffffff1663826715c16040518163ffffffff167c010000000000000000000000000000000000000000000000000000000002815260040160206040518083038186803b15801561173257600080fd5b505afa158015611746573d6000803e3d6000fd5b505050506040513d602081101561175c57600080fd5b8101908080519060200190929190505050905060606040519081016040528060011515815260200186600181111561179057fe5b815260200182815250600160008873ffffffffffffffffffffffffffffffffffffffff1673ffffffffffffffffffffffffffffffffffffffff16815260200190815260200160002060008201518160000160006101000a81548160ff02191690831515021790555060208201518160000160016101000a81548160ff0219169083600181111561181c57fe5b0217905550604082015181600101559050507f044f95a2d17727b5b87e4f23d70278b59a2b0b285289cc9021cac8cdba4797b7868683604051808473ffffffffffffffffffffffffffffffffffffffff1673ffffffffffffffffffffffffffffffffffffffff16815260200183600181111561189457fe5b60ff168152602001828152602001935050505060405180910390a1505b5050505050565b6118c0610c74565b15156118cb57600080fd5b6118d4816118ea565b50565b600080823b905060008111915050919050565b600073ffffffffffffffffffffffffffffffffffffffff168173ffffffffffffffffffffffffffffffffffffffff161415151561192657600080fd5b8073ffffffffffffffffffffffffffffffffffffffff166000809054906101000a900473ffffffffffffffffffffffffffffffffffffffff1673ffffffffffffffffffffffffffffffffffffffff167f8be0079c531659141344cd1fd0a4f28419497f9722a3daafe3b4186f6b6457e060405160405180910390a3806000806101000a81548173ffffffffffffffffffffffffffffffffffffffff021916908373ffffffffffffffffffffffffffffffffffffffff1602179055505056fea165627a7a72305820f099a4ccf55c168da7ed3722994a7e745726cb5b217d044f1ef708786795632e0029",
  "source": "pragma solidity ^0.5.0;\n\nimport \"openzeppelin-solidity/contracts/ownership/Ownable.sol\";\nimport \"openzeppelin-solidity/contracts/utils/Address.sol\";\nimport \"openzeppelin-solidity/contracts/math/SafeMath.sol\";\nimport \"./DLL.sol\";\nimport \"./PublisherSubscription.sol\";\n\n/// @title Publisher smart contract\n/// It Manages posts and subscriptions\ncontract Publisher is Ownable {\n\n    /// Libraries\n    using Address for address;\n    using SafeMath for uint256;\n    using DLL for DLL.Data;\n\n    /// Types of subscribers\n    enum SubscriberType {\n        /// Relay Backer\n        RELAY,\n        /// Fan\n        FAN\n    }\n\n    /// Subscriber properties\n    struct Subscriber {\n        bool active;\n        SubscriberType subType;\n        uint256 amount;\n    }\n\n    /// Relayer properties\n    struct Relayer {\n        bool active;\n        uint256 expendedGas;\n    }\n\n    /// List of subscribers\n    mapping(address => Subscriber) public subscribers;\n\n    /// Relayer expended Gas\n    /// relayerAddress => expendedGas\n    mapping(address => Relayer) public relayers;\n\n    /// Token address\n    address public tokenAddress;\n\n    /// Posts records\n    DLL.Data posts;\n    uint256 public totalPosts;\n\n    /// Events\n    event PostAdded(uint id, bytes32 digest, uint hashFunction, uint size);\n    event PostUpdated(uint id, bytes32 digest, uint hashFunction, uint size);\n    event PostDeleted(uint id, bytes32 digest, uint hashFunction, uint size);\n    event Subscribed(address subscriber, SubscriberType subType, uint256 tokenAmount);\n    event Unsubscribed(address subscriber, SubscriberType subType, uint256 tokenAmount);\n\n    /// Validate if an address belong to a Contract account\n    modifier isContract(address _addr) {\n        require(_addr.isContract());\n        _;\n    }\n\n    /// Validate if the msg.sender owns the PublisherSubscription contract\n    modifier isSubscriptionOwner(address _addr) {\n        require(PublisherSubscription(_addr).subscriber() == msg.sender);\n        _;\n    }\n\n    /// Validate if correct SubscriberType is sent\n    modifier isValidSubscriber(uint8 _subType) {\n        require(_subType == uint8(SubscriberType.FAN)\n            || _subType == uint8(SubscriberType.RELAY),\n            \"Subscriber must be FAN or RELAY\");\n        _;\n    }\n\n    /** @dev Contract constructor\n      * @param _defaultRelayAddress register at least a relayer. In can be owned by the publisher or Supporteth\n      * @param _tokenAddress Token address\n      */\n    constructor(\n        address _defaultRelayAddress,\n        address _tokenAddress\n        ) public isContract(_tokenAddress) {\n\n            relayers[_defaultRelayAddress] = Relayer(true, 0);\n            tokenAddress = _tokenAddress;\n            totalPosts = 0;\n    }\n\n    /**\n     * @dev Add an IPFS Multihash pointer to the registry\n     * @param _digest digest of IPFS Multihash\n     * @param _hashFunction hashFcn of IPFS Multihash\n     * @param _size size of IPFS Multihash\n     */\n    function addPost(bytes32 _digest, uint256 _hashFunction, uint256 _size)\n        public onlyOwner {\n        if(posts.isEmpty()) {\n            posts.insert(0, totalPosts+1, 0, block.timestamp, _digest, _hashFunction, _size);\n        } else {\n            posts.insert(totalPosts, totalPosts+1, posts.dll[totalPosts].prev,\n                block.timestamp, _digest, _hashFunction, _size);\n        }\n        totalPosts++;\n        emit PostAdded(totalPosts, _digest, _hashFunction, _size);\n\n    }\n\n    /**\n     * @dev Get a post with id\n     * @param _id post id in registry\n     * @return (uint, uint, bytes32, uint, uint, uint) post attributes in DLL\n     */\n    function getPost(uint32 _id)\n        public view returns (uint, uint, bytes32, uint, uint, uint) {\n        DLL.Node storage hash = posts.dll[_id];\n        return (hash.prev, hash.next, hash.digest, hash.hashFunction, hash.size, hash.timestamp);\n    }\n\n    /**\n     * @dev Update a post IPFS Multihash\n     * @param _id post id\n     * @param _digest digest of IPFS Multihash\n     * @param _hashFunction hashFcn of IPFS Multihash\n     * @param _size size of IPFS Multihash\n     * @return bool true if processed\n     */\n    function updatePost(uint _id, bytes32 _digest, uint _hashFunction, uint _size)\n        public onlyOwner returns (bool) {\n        DLL.Node storage hash = posts.dll[_id];\n        hash.digest = _digest;\n        hash.hashFunction = _hashFunction;\n        hash.size = _size;\n        emit PostUpdated(_id, _digest, _hashFunction, _size);\n        return true;\n    }\n\n    /**\n     * @dev Delete a post from the registry\n     * @param _id post id in registry\n     * @return bool true if processed\n     */\n    function deletePost(uint _id) public onlyOwner returns (bool) {\n        DLL.Node storage hash = posts.dll[_id];\n        posts.remove(_id);\n        totalPosts--;\n        emit PostDeleted(_id, hash.digest, hash.hashFunction, hash.size);\n        return true;\n    }\n\n    /**\n     * @dev Register a subscriber\n     * @param _subscription PublisherSubscription contract address\n     * @param _subType SubscriberType\n     */\n    function subscribe(address _subscription, SubscriberType _subType)\n        external isContract(_subscription) isSubscriptionOwner(_subscription)\n        isValidSubscriber(uint8(_subType)) {\n\n            if(_subType == SubscriberType.RELAY) {\n                require(!relayers[_subscription].active, \"Relayer subscriber already registered\");\n                subscribers[_subscription] = Subscriber(true, _subType, 0);\n                relayers[_subscription] = Relayer(true, 0);\n                emit Subscribed(_subscription, _subType, 0);\n            } else { /// FAN\n                require(!subscribers[_subscription].active, \"Subscriber already registered\");\n                require(_subscription.isContract(), \"Address must be a PublisherSubscription contract\");\n                uint256 amount = PublisherSubscription(_subscription).getSubscriptionAmount();\n                subscribers[_subscription] = Subscriber(true, _subType, amount);\n                emit Subscribed(_subscription, _subType, amount);\n            }\n    }\n\n    /**\n     * @dev Remove a subscription from the registry\n     * @param _subscription PublisherSubscription contract address\n     */\n    function unsubscribe(address _subscription)\n        external isContract(_subscription) isSubscriptionOwner(_subscription) {\n        require(subscribers[_subscription].active, \"Subscription is not active\");\n\n        Subscriber storage sub = subscribers[_subscription];\n        emit Unsubscribed(_subscription, sub.subType, sub.amount);\n        delete subscribers[_subscription];\n    }\n\n    /**\n     * @dev Check if a Relayer is active\n     * @param _relay Relayer account address\n     * @return bool true if Relayer is active\n     */\n    function isActiveRelay(address _relay) public view returns (bool) {\n        return subscribers[_relay].active &&\n            subscribers[_relay].subType == SubscriberType.RELAY;\n    }\n\n}\n",
  "sourcePath": "/Users/santteegt/Consensys-Academy/Resources/Final project/truffle-react/contracts/Publisher.sol",
  "compiler": {
    "name": "solc",
    "version": "0.5.0+commit.1d4f565a.Emscripten.clang"
  },
  "schemaVersion": "3.0.1",
  "updatedAt": "2019-01-28T00:19:28.873Z",
  "devdoc": {
    "methods": {
      "addPost(bytes32,uint256,uint256)": {
        "details": "Add an IPFS Multihash pointer to the registry",
        "params": {
          "_digest": "digest of IPFS Multihash",
          "_hashFunction": "hashFcn of IPFS Multihash",
          "_size": "size of IPFS Multihash"
        }
      },
      "constructor": {
        "details": "Contract constructor",
        "params": {
          "_defaultRelayAddress": "register at least a relayer. In can be owned by the publisher or Supporteth",
          "_tokenAddress": "Token address"
        }
      },
      "deletePost(uint256)": {
        "details": "Delete a post from the registry",
        "params": {
          "_id": "post id in registry"
        },
        "return": "bool true if processed"
      },
      "getPost(uint32)": {
        "details": "Get a post with id",
        "params": {
          "_id": "post id in registry"
        },
        "return": "(uint, uint, bytes32, uint, uint, uint) post attributes in DLL"
      },
      "isActiveRelay(address)": {
        "details": "Check if a Relayer is active",
        "params": {
          "_relay": "Relayer account address"
        },
        "return": "bool true if Relayer is active"
      },
      "isOwner()": {
        "return": "true if `msg.sender` is the owner of the contract."
      },
      "owner()": {
        "return": "the address of the owner."
      },
      "renounceOwnership()": {
        "details": "Allows the current owner to relinquish control of the contract."
      },
      "subscribe(address,uint8)": {
        "details": "Register a subscriber",
        "params": {
          "_subType": "SubscriberType",
          "_subscription": "PublisherSubscription contract address"
        }
      },
      "transferOwnership(address)": {
        "details": "Allows the current owner to transfer control of the contract to a newOwner.",
        "params": {
          "newOwner": "The address to transfer ownership to."
        }
      },
      "unsubscribe(address)": {
        "details": "Remove a subscription from the registry",
        "params": {
          "_subscription": "PublisherSubscription contract address"
        }
      },
      "updatePost(uint256,bytes32,uint256,uint256)": {
        "details": "Update a post IPFS Multihash",
        "params": {
          "_digest": "digest of IPFS Multihash",
          "_hashFunction": "hashFcn of IPFS Multihash",
          "_id": "post id",
          "_size": "size of IPFS Multihash"
        },
        "return": "bool true if processed"
      }
    },
    "title": "Publisher smart contract It Manages posts and subscriptions"
  },
  "userdoc": {
    "methods": {
      "renounceOwnership()": {
        "notice": "Renouncing to ownership will leave the contract without an owner. It will not be possible to call the functions with the `onlyOwner` modifier anymore."
      }
    }
  }
}