{
  "contractName": "PublisherSubscription",
  "abi": [
    {
      "constant": true,
      "inputs": [],
      "name": "subscriber",
      "outputs": [
        {
          "name": "",
          "type": "address"
        }
      ],
      "payable": false,
      "stateMutability": "view",
      "type": "function",
      "signature": "0x20e03630"
    },
    {
      "constant": false,
      "inputs": [],
      "name": "unpause",
      "outputs": [],
      "payable": false,
      "stateMutability": "nonpayable",
      "type": "function",
      "signature": "0x3f4ba83a"
    },
    {
      "constant": true,
      "inputs": [
        {
          "name": "account",
          "type": "address"
        }
      ],
      "name": "isPauser",
      "outputs": [
        {
          "name": "",
          "type": "bool"
        }
      ],
      "payable": false,
      "stateMutability": "view",
      "type": "function",
      "signature": "0x46fbf68e"
    },
    {
      "constant": true,
      "inputs": [],
      "name": "paused",
      "outputs": [
        {
          "name": "",
          "type": "bool"
        }
      ],
      "payable": false,
      "stateMutability": "view",
      "type": "function",
      "signature": "0x5c975abb"
    },
    {
      "constant": false,
      "inputs": [],
      "name": "renouncePauser",
      "outputs": [],
      "payable": false,
      "stateMutability": "nonpayable",
      "type": "function",
      "signature": "0x6ef8d66d"
    },
    {
      "constant": false,
      "inputs": [
        {
          "name": "account",
          "type": "address"
        }
      ],
      "name": "addPauser",
      "outputs": [],
      "payable": false,
      "stateMutability": "nonpayable",
      "type": "function",
      "signature": "0x82dc1ec4"
    },
    {
      "constant": false,
      "inputs": [],
      "name": "pause",
      "outputs": [],
      "payable": false,
      "stateMutability": "nonpayable",
      "type": "function",
      "signature": "0x8456cb59"
    },
    {
      "constant": true,
      "inputs": [],
      "name": "subStatus",
      "outputs": [
        {
          "name": "",
          "type": "uint8"
        }
      ],
      "payable": false,
      "stateMutability": "view",
      "type": "function",
      "signature": "0xc20f2871"
    },
    {
      "constant": true,
      "inputs": [],
      "name": "settings",
      "outputs": [
        {
          "name": "publisher",
          "type": "address"
        },
        {
          "name": "tokenAddress",
          "type": "address"
        },
        {
          "name": "tokenAmount",
          "type": "uint256"
        },
        {
          "name": "subscriptionPeriod",
          "type": "uint256"
        }
      ],
      "payable": false,
      "stateMutability": "view",
      "type": "function",
      "signature": "0xe06174e4"
    },
    {
      "constant": true,
      "inputs": [
        {
          "name": "",
          "type": "bytes32"
        }
      ],
      "name": "nextValidTimestamp",
      "outputs": [
        {
          "name": "",
          "type": "uint256"
        }
      ],
      "payable": false,
      "stateMutability": "view",
      "type": "function",
      "signature": "0xff59bff8"
    },
    {
      "inputs": [
        {
          "name": "_publisher",
          "type": "address"
        },
        {
          "name": "_tokenAddress",
          "type": "address"
        },
        {
          "name": "_tokenAmount",
          "type": "uint256"
        },
        {
          "name": "_subscriptionPeriod",
          "type": "uint256"
        }
      ],
      "payable": false,
      "stateMutability": "nonpayable",
      "type": "constructor",
      "signature": "constructor"
    },
    {
      "anonymous": false,
      "inputs": [
        {
          "indexed": true,
          "name": "subscriber",
          "type": "address"
        },
        {
          "indexed": true,
          "name": "publisher",
          "type": "address"
        },
        {
          "indexed": false,
          "name": "tokenAddress",
          "type": "address"
        },
        {
          "indexed": false,
          "name": "tokenAmount",
          "type": "uint256"
        },
        {
          "indexed": false,
          "name": "subscriptionPeriod",
          "type": "uint256"
        },
        {
          "indexed": false,
          "name": "gasPrice",
          "type": "uint256"
        }
      ],
      "name": "ExecuteSubscription",
      "type": "event",
      "signature": "0xc51b043bf6e44ae9d9e0df67b8ad10c8b5d93be940b9475f4af44e866b2f08f6"
    },
    {
      "anonymous": false,
      "inputs": [
        {
          "indexed": true,
          "name": "subscriber",
          "type": "address"
        },
        {
          "indexed": true,
          "name": "publisher",
          "type": "address"
        },
        {
          "indexed": false,
          "name": "tokenAddress",
          "type": "address"
        },
        {
          "indexed": false,
          "name": "tokenAmount",
          "type": "uint256"
        },
        {
          "indexed": false,
          "name": "subscriptionPeriod",
          "type": "uint256"
        }
      ],
      "name": "CancelSubscription",
      "type": "event",
      "signature": "0x508a0a3c38b3b5cf20551573f084724eb5f12540b597b0bb020d419171d9360f"
    },
    {
      "anonymous": false,
      "inputs": [
        {
          "indexed": false,
          "name": "account",
          "type": "address"
        }
      ],
      "name": "Paused",
      "type": "event",
      "signature": "0x62e78cea01bee320cd4e420270b5ea74000d11b0c9f74754ebdbfc544b05a258"
    },
    {
      "anonymous": false,
      "inputs": [
        {
          "indexed": false,
          "name": "account",
          "type": "address"
        }
      ],
      "name": "Unpaused",
      "type": "event",
      "signature": "0x5db9ee0a495bf2e6ff9c91a7834c1ba4fdd244a5e8aa4e537bd38aeae4b073aa"
    },
    {
      "anonymous": false,
      "inputs": [
        {
          "indexed": true,
          "name": "account",
          "type": "address"
        }
      ],
      "name": "PauserAdded",
      "type": "event",
      "signature": "0x6719d08c1888103bea251a4ed56406bd0c3e69723c8a1686e017e7bbe159b6f8"
    },
    {
      "anonymous": false,
      "inputs": [
        {
          "indexed": true,
          "name": "account",
          "type": "address"
        }
      ],
      "name": "PauserRemoved",
      "type": "event",
      "signature": "0xcd265ebaf09df2871cc7bd4133404a235ba12eff2041bb89d9c714a2621c7c7e"
    },
    {
      "constant": false,
      "inputs": [
        {
          "name": "_subscriber",
          "type": "address"
        },
        {
          "name": "_publisher",
          "type": "address"
        },
        {
          "name": "_tokenAddress",
          "type": "address"
        },
        {
          "name": "_tokenAmount",
          "type": "uint256"
        },
        {
          "name": "_subscriptionPeriod",
          "type": "uint256"
        },
        {
          "name": "_signature",
          "type": "bytes"
        }
      ],
      "name": "executeSubscription",
      "outputs": [
        {
          "name": "success",
          "type": "bool"
        }
      ],
      "payable": false,
      "stateMutability": "nonpayable",
      "type": "function",
      "signature": "0xe45e1125"
    },
    {
      "constant": true,
      "inputs": [
        {
          "name": "_subscriber",
          "type": "address"
        },
        {
          "name": "_publisher",
          "type": "address"
        },
        {
          "name": "_tokenAddress",
          "type": "address"
        },
        {
          "name": "_tokenAmount",
          "type": "uint256"
        },
        {
          "name": "_subscriptionPeriod",
          "type": "uint256"
        },
        {
          "name": "_signature",
          "type": "bytes"
        }
      ],
      "name": "isSubscriptionReady",
      "outputs": [
        {
          "name": "",
          "type": "bool"
        }
      ],
      "payable": false,
      "stateMutability": "view",
      "type": "function",
      "signature": "0xa1e3a860"
    },
    {
      "constant": false,
      "inputs": [
        {
          "name": "_subscriber",
          "type": "address"
        },
        {
          "name": "_publisher",
          "type": "address"
        },
        {
          "name": "_tokenAddress",
          "type": "address"
        },
        {
          "name": "_tokenAmount",
          "type": "uint256"
        },
        {
          "name": "_subscriptionPeriod",
          "type": "uint256"
        },
        {
          "name": "_signature",
          "type": "bytes"
        }
      ],
      "name": "cancelSubscription",
      "outputs": [
        {
          "name": "success",
          "type": "bool"
        }
      ],
      "payable": false,
      "stateMutability": "nonpayable",
      "type": "function",
      "signature": "0xa0c77e8d"
    },
    {
      "constant": true,
      "inputs": [
        {
          "name": "_subscriber",
          "type": "address"
        },
        {
          "name": "_publisher",
          "type": "address"
        },
        {
          "name": "_tokenAddress",
          "type": "address"
        },
        {
          "name": "_tokenAmount",
          "type": "uint256"
        },
        {
          "name": "_subscriptionPeriod",
          "type": "uint256"
        }
      ],
      "name": "getSubscriptionHash",
      "outputs": [
        {
          "name": "",
          "type": "bytes32"
        }
      ],
      "payable": false,
      "stateMutability": "view",
      "type": "function",
      "signature": "0xd42c0c5f"
    },
    {
      "constant": true,
      "inputs": [
        {
          "name": "_subscriptionHash",
          "type": "bytes32"
        },
        {
          "name": "_signature",
          "type": "bytes"
        }
      ],
      "name": "getSubscriptionSigner",
      "outputs": [
        {
          "name": "",
          "type": "address"
        }
      ],
      "payable": false,
      "stateMutability": "pure",
      "type": "function",
      "signature": "0x18f321a3"
    },
    {
      "constant": true,
      "inputs": [
        {
          "name": "_subscriptionHash",
          "type": "bytes32"
        },
        {
          "name": "_signature",
          "type": "bytes"
        }
      ],
      "name": "_getSigner",
      "outputs": [
        {
          "name": "",
          "type": "address"
        }
      ],
      "payable": false,
      "stateMutability": "pure",
      "type": "function",
      "signature": "0x2d84c3e8"
    },
    {
      "constant": true,
      "inputs": [
        {
          "name": "_subscriptionHash",
          "type": "bytes32"
        },
        {
          "name": "_subscriptionPeriod",
          "type": "uint256"
        }
      ],
      "name": "isSubscriptionActive",
      "outputs": [
        {
          "name": "",
          "type": "bool"
        }
      ],
      "payable": false,
      "stateMutability": "view",
      "type": "function",
      "signature": "0xae702ba4"
    },
    {
      "constant": true,
      "inputs": [],
      "name": "getSettings",
      "outputs": [
        {
          "name": "",
          "type": "address"
        },
        {
          "name": "",
          "type": "address"
        },
        {
          "name": "",
          "type": "uint256"
        },
        {
          "name": "",
          "type": "uint256"
        }
      ],
      "payable": false,
      "stateMutability": "view",
      "type": "function",
      "signature": "0x85b4bb53"
    },
    {
      "constant": true,
      "inputs": [],
      "name": "getSubscriptionAmount",
      "outputs": [
        {
          "name": "",
          "type": "uint256"
        }
      ],
      "payable": false,
      "stateMutability": "view",
      "type": "function",
      "signature": "0x826715c1"
    }
  ],
  "bytecode": "0x60806040523480156200001157600080fd5b5060405160808062002913833981018060405260808110156200003357600080fd5b81019080805190602001909291908051906020019092919080519060200190929190805190602001909291905050506200007c336200025c640100000000026401000000009004565b6000600160006101000a81548160ff02191690831515021790555083620000cd8173ffffffffffffffffffffffffffffffffffffffff16620002c66401000000000262002493176401000000009004565b1515620000d957600080fd5b836200010f8173ffffffffffffffffffffffffffffffffffffffff16620002c66401000000000262002493176401000000009004565b15156200011b57600080fd5b336001806101000a81548173ffffffffffffffffffffffffffffffffffffffff021916908373ffffffffffffffffffffffffffffffffffffffff1602179055506080604051908101604052808773ffffffffffffffffffffffffffffffffffffffff1681526020018673ffffffffffffffffffffffffffffffffffffffff16815260200185815260200184815250600360008201518160000160006101000a81548173ffffffffffffffffffffffffffffffffffffffff021916908373ffffffffffffffffffffffffffffffffffffffff16021790555060208201518160010160006101000a81548173ffffffffffffffffffffffffffffffffffffffff021916908373ffffffffffffffffffffffffffffffffffffffff160217905550604082015181600201556060820151816003015590505050505050505062000431565b62000280816000620002d964010000000002620023e3179091906401000000009004565b8073ffffffffffffffffffffffffffffffffffffffff167f6719d08c1888103bea251a4ed56406bd0c3e69723c8a1686e017e7bbe159b6f860405160405180910390a250565b600080823b905060008111915050919050565b600073ffffffffffffffffffffffffffffffffffffffff168173ffffffffffffffffffffffffffffffffffffffff16141515156200031657600080fd5b6200033182826200039c640100000000026401000000009004565b1515156200033e57600080fd5b60018260000160008373ffffffffffffffffffffffffffffffffffffffff1673ffffffffffffffffffffffffffffffffffffffff16815260200190815260200160002060006101000a81548160ff0219169083151502179055505050565b60008073ffffffffffffffffffffffffffffffffffffffff168273ffffffffffffffffffffffffffffffffffffffff1614151515620003da57600080fd5b8260000160008373ffffffffffffffffffffffffffffffffffffffff1673ffffffffffffffffffffffffffffffffffffffff16815260200190815260200160002060009054906101000a900460ff16905092915050565b6124d280620004416000396000f3fe608060405260043610610107576000357c0100000000000000000000000000000000000000000000000000000000900463ffffffff16806318f321a31461010c57806320e036301461021e5780632d84c3e8146102755780633f4ba83a1461038757806346fbf68e1461039e5780635c975abb146104075780636ef8d66d14610436578063826715c11461044d57806382dc1ec4146104785780638456cb59146104c957806385b4bb53146104e0578063a0c77e8d14610578578063a1e3a860146106cc578063ae702ba414610820578063c20f28711461087d578063d42c0c5f146108b6578063e06174e41461096f578063e45e112514610a07578063ff59bff814610b5b575b600080fd5b34801561011857600080fd5b506101dc6004803603604081101561012f57600080fd5b81019080803590602001909291908035906020019064010000000081111561015657600080fd5b82018360208201111561016857600080fd5b8035906020019184600183028401116401000000008311171561018a57600080fd5b91908080601f016020809104026020016040519081016040528093929190818152602001838380828437600081840152601f19601f820116905080830192505050505050509192919290505050610baa565b604051808273ffffffffffffffffffffffffffffffffffffffff1673ffffffffffffffffffffffffffffffffffffffff16815260200191505060405180910390f35b34801561022a57600080fd5b50610233610bcf565b604051808273ffffffffffffffffffffffffffffffffffffffff1673ffffffffffffffffffffffffffffffffffffffff16815260200191505060405180910390f35b34801561028157600080fd5b506103456004803603604081101561029857600080fd5b8101908080359060200190929190803590602001906401000000008111156102bf57600080fd5b8201836020820111156102d157600080fd5b803590602001918460018302840111640100000000831117156102f357600080fd5b91908080601f016020809104026020016040519081016040528093929190818152602001838380828437600081840152601f19601f820116905080830192505050505050509192919290505050610bf4565b604051808273ffffffffffffffffffffffffffffffffffffffff1673ffffffffffffffffffffffffffffffffffffffff16815260200191505060405180910390f35b34801561039357600080fd5b5061039c610d26565b005b3480156103aa57600080fd5b506103ed600480360360208110156103c157600080fd5b81019080803573ffffffffffffffffffffffffffffffffffffffff169060200190929190505050610dd5565b604051808215151515815260200191505060405180910390f35b34801561041357600080fd5b5061041c610df2565b604051808215151515815260200191505060405180910390f35b34801561044257600080fd5b5061044b610e09565b005b34801561045957600080fd5b50610462610e14565b6040518082815260200191505060405180910390f35b34801561048457600080fd5b506104c76004803603602081101561049b57600080fd5b81019080803573ffffffffffffffffffffffffffffffffffffffff169060200190929190505050610e21565b005b3480156104d557600080fd5b506104de610e41565b005b3480156104ec57600080fd5b506104f5610ef0565b604051808573ffffffffffffffffffffffffffffffffffffffff1673ffffffffffffffffffffffffffffffffffffffff1681526020018473ffffffffffffffffffffffffffffffffffffffff1673ffffffffffffffffffffffffffffffffffffffff16815260200183815260200182815260200194505050505060405180910390f35b34801561058457600080fd5b506106b2600480360360c081101561059b57600080fd5b81019080803573ffffffffffffffffffffffffffffffffffffffff169060200190929190803573ffffffffffffffffffffffffffffffffffffffff169060200190929190803573ffffffffffffffffffffffffffffffffffffffff16906020019092919080359060200190929190803590602001909291908035906020019064010000000081111561062c57600080fd5b82018360208201111561063e57600080fd5b8035906020019184600183028401116401000000008311171561066057600080fd5b91908080601f016020809104026020016040519081016040528093929190818152602001838380828437600081840152601f19601f820116905080830192505050505050509192919290505050610fb6565b604051808215151515815260200191505060405180910390f35b3480156106d857600080fd5b50610806600480360360c08110156106ef57600080fd5b81019080803573ffffffffffffffffffffffffffffffffffffffff169060200190929190803573ffffffffffffffffffffffffffffffffffffffff169060200190929190803573ffffffffffffffffffffffffffffffffffffffff16906020019092919080359060200190929190803590602001909291908035906020019064010000000081111561078057600080fd5b82018360208201111561079257600080fd5b803590602001918460018302840111640100000000831117156107b457600080fd5b91908080601f016020809104026020016040519081016040528093929190818152602001838380828437600081840152601f19601f82011690508083019250505050505050919291929050505061127f565b604051808215151515815260200191505060405180910390f35b34801561082c57600080fd5b506108636004803603604081101561084357600080fd5b810190808035906020019092919080359060200190929190505050611531565b604051808215151515815260200191505060405180910390f35b34801561088957600080fd5b50610892611564565b604051808260028111156108a257fe5b60ff16815260200191505060405180910390f35b3480156108c257600080fd5b50610959600480360360a08110156108d957600080fd5b81019080803573ffffffffffffffffffffffffffffffffffffffff169060200190929190803573ffffffffffffffffffffffffffffffffffffffff169060200190929190803573ffffffffffffffffffffffffffffffffffffffff1690602001909291908035906020019092919080359060200190929190505050611577565b6040518082815260200191505060405180910390f35b34801561097b57600080fd5b5061098461179d565b604051808573ffffffffffffffffffffffffffffffffffffffff1673ffffffffffffffffffffffffffffffffffffffff1681526020018473ffffffffffffffffffffffffffffffffffffffff1673ffffffffffffffffffffffffffffffffffffffff16815260200183815260200182815260200194505050505060405180910390f35b348015610a1357600080fd5b50610b41600480360360c0811015610a2a57600080fd5b81019080803573ffffffffffffffffffffffffffffffffffffffff169060200190929190803573ffffffffffffffffffffffffffffffffffffffff169060200190929190803573ffffffffffffffffffffffffffffffffffffffff169060200190929190803590602001909291908035906020019092919080359060200190640100000000811115610abb57600080fd5b820183602082011115610acd57600080fd5b80359060200191846001830284011164010000000083111715610aef57600080fd5b91908080601f016020809104026020016040519081016040528093929190818152602001838380828437600081840152601f19601f8201169050808301925050505050505091929192905050506117fb565b604051808215151515815260200191505060405180910390f35b348015610b6757600080fd5b50610b9460048036036020811015610b7e57600080fd5b8101908080359060200190929190505050612077565b6040518082815260200191505060405180910390f35b6000610bc782610bb98561208f565b6120e790919063ffffffff16565b905092915050565b6001809054906101000a900473ffffffffffffffffffffffffffffffffffffffff1681565b60008060008060418551141515610c115760009350505050610d20565b6020850151925060408501519150606085015160001a9050601b8160ff161015610c3c57601b810190505b601b8160ff1614158015610c545750601c8160ff1614155b15610c655760009350505050610d20565b60018660405160200180807f19457468657265756d205369676e6564204d6573736167653a0a333200000000815250601c018281526020019150506040516020818303038152906040528051906020012082858560405160008152602001604052604051808581526020018460ff1660ff1681526020018381526020018281526020019450505050506020604051602081039080840390855afa158015610d10573d6000803e3d6000fd5b5050506020604051035193505050505b92915050565b610d2f33610dd5565b1515610d3a57600080fd5b600160009054906101000a900460ff161515610d5557600080fd5b6000600160006101000a81548160ff0219169083151502179055507f5db9ee0a495bf2e6ff9c91a7834c1ba4fdd244a5e8aa4e537bd38aeae4b073aa33604051808273ffffffffffffffffffffffffffffffffffffffff1673ffffffffffffffffffffffffffffffffffffffff16815260200191505060405180910390a1565b6000610deb8260006121cb90919063ffffffff16565b9050919050565b6000600160009054906101000a900460ff16905090565b610e123361225f565b565b6000600360020154905090565b610e2a33610dd5565b1515610e3557600080fd5b610e3e816122b9565b50565b610e4a33610dd5565b1515610e5557600080fd5b600160009054906101000a900460ff16151515610e7157600080fd5b60018060006101000a81548160ff0219169083151502179055507f62e78cea01bee320cd4e420270b5ea74000d11b0c9f74754ebdbfc544b05a25833604051808273ffffffffffffffffffffffffffffffffffffffff1673ffffffffffffffffffffffffffffffffffffffff16815260200191505060405180910390a1565b6000806000806001809054906101000a900473ffffffffffffffffffffffffffffffffffffffff1673ffffffffffffffffffffffffffffffffffffffff163373ffffffffffffffffffffffffffffffffffffffff16141515610f5157600080fd5b600360000160009054906101000a900473ffffffffffffffffffffffffffffffffffffffff16600360010160009054906101000a900473ffffffffffffffffffffffffffffffffffffffff166003600201546003800154935093509350935090919293565b60006001809054906101000a900473ffffffffffffffffffffffffffffffffffffffff1673ffffffffffffffffffffffffffffffffffffffff163373ffffffffffffffffffffffffffffffffffffffff1614151561101357600080fd5b60028081111561101f57fe5b600160159054906101000a900460ff16600281111561103a57fe5b141515156110b0576040517f08c379a00000000000000000000000000000000000000000000000000000000081526004018080602001828103825260198152602001807f537562736372697074696f6e2069732063616e63656c6c65640000000000000081525060200191505060405180910390fd5b60006110bf8888888888611577565b905060006110cd8285610baa565b90508873ffffffffffffffffffffffffffffffffffffffff168173ffffffffffffffffffffffffffffffffffffffff16141515611172576040517f08c379a00000000000000000000000000000000000000000000000000000000081526004018080602001828103825260118152602001807f496e76616c6964205369676e617475726500000000000000000000000000000081525060200191505060405180910390fd5b7fffffffffffffffffffffffffffffffffffffffffffffffffffffffffffffffff60026000848152602001908152602001600020819055506002600160156101000a81548160ff021916908360028111156111c957fe5b02179055508773ffffffffffffffffffffffffffffffffffffffff168973ffffffffffffffffffffffffffffffffffffffff167f508a0a3c38b3b5cf20551573f084724eb5f12540b597b0bb020d419171d9360f898989604051808473ffffffffffffffffffffffffffffffffffffffff1673ffffffffffffffffffffffffffffffffffffffff168152602001838152602001828152602001935050505060405180910390a36001925050509695505050505050565b60008061128f8888888888611577565b9050600061129d8285610baa565b905060008773ffffffffffffffffffffffffffffffffffffffff1663dd62ed3e8b306040518363ffffffff167c0100000000000000000000000000000000000000000000000000000000028152600401808373ffffffffffffffffffffffffffffffffffffffff1673ffffffffffffffffffffffffffffffffffffffff1681526020018273ffffffffffffffffffffffffffffffffffffffff1673ffffffffffffffffffffffffffffffffffffffff1681526020019250505060206040518083038186803b15801561136e57600080fd5b505afa158015611382573d6000803e3d6000fd5b505050506040513d602081101561139857600080fd5b8101908080519060200190929190505050905060008873ffffffffffffffffffffffffffffffffffffffff166370a082318c6040518263ffffffff167c0100000000000000000000000000000000000000000000000000000000028152600401808273ffffffffffffffffffffffffffffffffffffffff1673ffffffffffffffffffffffffffffffffffffffff16815260200191505060206040518083038186803b15801561144657600080fd5b505afa15801561145a573d6000803e3d6000fd5b505050506040513d602081101561147057600080fd5b810190808051906020019092919050505090508a73ffffffffffffffffffffffffffffffffffffffff168373ffffffffffffffffffffffffffffffffffffffff161480156114ea57508973ffffffffffffffffffffffffffffffffffffffff168b73ffffffffffffffffffffffffffffffffffffffff1614155b8015611509575060026000858152602001908152602001600020544210155b80156115155750878210155b80156115215750878110155b9450505050509695505050505050565b600061155982600260008681526020019081526020016000205461231390919063ffffffff16565b421115905092915050565b600160159054906101000a900460ff1681565b600060197f01000000000000000000000000000000000000000000000000000000000000000260007f01000000000000000000000000000000000000000000000000000000000000000230888888888860405160200180897effffffffffffffffffffffffffffffffffffffffffffffffffffffffffffff19167effffffffffffffffffffffffffffffffffffffffffffffffffffffffffffff19168152600101887effffffffffffffffffffffffffffffffffffffffffffffffffffffffffffff19167effffffffffffffffffffffffffffffffffffffffffffffffffffffffffffff191681526001018773ffffffffffffffffffffffffffffffffffffffff1673ffffffffffffffffffffffffffffffffffffffff166c010000000000000000000000000281526014018673ffffffffffffffffffffffffffffffffffffffff1673ffffffffffffffffffffffffffffffffffffffff166c010000000000000000000000000281526014018573ffffffffffffffffffffffffffffffffffffffff1673ffffffffffffffffffffffffffffffffffffffff166c010000000000000000000000000281526014018473ffffffffffffffffffffffffffffffffffffffff1673ffffffffffffffffffffffffffffffffffffffff166c010000000000000000000000000281526014018381526020018281526020019850505050505050505060405160208183030381529060405280519060200120905095945050505050565b60038060000160009054906101000a900473ffffffffffffffffffffffffffffffffffffffff16908060010160009054906101000a900473ffffffffffffffffffffffffffffffffffffffff16908060020154908060030154905084565b6000600160009054906101000a900460ff1615151561181957600080fd5b60028081111561182557fe5b600160159054906101000a900460ff16600281111561184057fe5b141515156118b6576040517f08c379a00000000000000000000000000000000000000000000000000000000081526004018080602001828103825260198152602001807f537562736372697074696f6e2069732063616e63656c6c65640000000000000081525060200191505060405180910390fd5b60006118c58888888888611577565b905060006118d38285610baa565b90508073ffffffffffffffffffffffffffffffffffffffff168973ffffffffffffffffffffffffffffffffffffffff16141515611978576040517f08c379a00000000000000000000000000000000000000000000000000000000081526004018080602001828103825260118152602001807f496e76616c6964205369676e617475726500000000000000000000000000000081525060200191505060405180910390fd5b60026000838152602001908152602001600020544210151515611a03576040517f08c379a00000000000000000000000000000000000000000000000000000000081526004018080602001828103825260198152602001807f537562736372697074696f6e206973206e6f742072656164790000000000000081525060200191505060405180910390fd5b611a1a60038001544261231390919063ffffffff16565b600260008481526020019081526020016000208190555060008773ffffffffffffffffffffffffffffffffffffffff166370a082318a6040518263ffffffff167c0100000000000000000000000000000000000000000000000000000000028152600401808273ffffffffffffffffffffffffffffffffffffffff1673ffffffffffffffffffffffffffffffffffffffff16815260200191505060206040518083038186803b158015611acc57600080fd5b505afa158015611ae0573d6000803e3d6000fd5b505050506040513d6020811015611af657600080fd5b810190808051906020019092919050505090508773ffffffffffffffffffffffffffffffffffffffff166323b872dd8b8b8a6040518463ffffffff167c0100000000000000000000000000000000000000000000000000000000028152600401808473ffffffffffffffffffffffffffffffffffffffff1673ffffffffffffffffffffffffffffffffffffffff1681526020018373ffffffffffffffffffffffffffffffffffffffff1673ffffffffffffffffffffffffffffffffffffffff1681526020018281526020019350505050602060405180830381600087803b158015611be057600080fd5b505af1158015611bf4573d6000803e3d6000fd5b505050506040513d6020811015611c0a57600080fd5b81019080805190602001909291905050501515611c8f576040517f08c379a000000000000000000000000000000000000000000000000000000000815260040180806020018281038252600f8152602001807f5472616e73666572204661696c6564000000000000000000000000000000000081525060200191505060405180910390fd5b8773ffffffffffffffffffffffffffffffffffffffff166370a082318a6040518263ffffffff167c0100000000000000000000000000000000000000000000000000000000028152600401808273ffffffffffffffffffffffffffffffffffffffff1673ffffffffffffffffffffffffffffffffffffffff16815260200191505060206040518083038186803b158015611d2857600080fd5b505afa158015611d3c573d6000803e3d6000fd5b505050506040513d6020811015611d5257600080fd5b8101908080519060200190929190505050878201141515611e01576040517f08c379a00000000000000000000000000000000000000000000000000000000081526004018080602001828103825260218152602001807f466174616c206572726f7220647572696e6720546f6b656e205472616e73666581526020017f720000000000000000000000000000000000000000000000000000000000000081525060400191505060405180910390fd5b60008090508973ffffffffffffffffffffffffffffffffffffffff168b73ffffffffffffffffffffffffffffffffffffffff167fc51b043bf6e44ae9d9e0df67b8ad10c8b5d93be940b9475f4af44e866b2f08f68b8b8b86604051808573ffffffffffffffffffffffffffffffffffffffff1673ffffffffffffffffffffffffffffffffffffffff16815260200184815260200183815260200182815260200194505050505060405180910390a36000811115612065578873ffffffffffffffffffffffffffffffffffffffff166323b872dd8c33846040518463ffffffff167c0100000000000000000000000000000000000000000000000000000000028152600401808473ffffffffffffffffffffffffffffffffffffffff1673ffffffffffffffffffffffffffffffffffffffff1681526020018373ffffffffffffffffffffffffffffffffffffffff1673ffffffffffffffffffffffffffffffffffffffff1681526020018281526020019350505050602060405180830381600087803b158015611f8f57600080fd5b505af1158015611fa3573d6000803e3d6000fd5b505050506040513d6020811015611fb957600080fd5b81019080805190602001909291905050501515612064576040517f08c379a00000000000000000000000000000000000000000000000000000000081526004018080602001828103825260308152602001807f4661696c656420746f2070617920696e63656e746976652067617320746f6b6581526020017f6e20746f207468652072656c617965720000000000000000000000000000000081525060400191505060405180910390fd5b5b60019450505050509695505050505050565b60026020528060005260406000206000915090505481565b60008160405160200180807f19457468657265756d205369676e6564204d6573736167653a0a333200000000815250601c01828152602001915050604051602081830303815290604052805190602001209050919050565b6000806000806041855114151561210457600093505050506121c5565b6020850151925060408501519150606085015160001a9050601b8160ff16101561212f57601b810190505b601b8160ff16141580156121475750601c8160ff1614155b1561215857600093505050506121c5565b60018682858560405160008152602001604052604051808581526020018460ff1660ff1681526020018381526020018281526020019450505050506020604051602081039080840390855afa1580156121b5573d6000803e3d6000fd5b5050506020604051035193505050505b92915050565b60008073ffffffffffffffffffffffffffffffffffffffff168273ffffffffffffffffffffffffffffffffffffffff161415151561220857600080fd5b8260000160008373ffffffffffffffffffffffffffffffffffffffff1673ffffffffffffffffffffffffffffffffffffffff16815260200190815260200160002060009054906101000a900460ff16905092915050565b61227381600061233490919063ffffffff16565b8073ffffffffffffffffffffffffffffffffffffffff167fcd265ebaf09df2871cc7bd4133404a235ba12eff2041bb89d9c714a2621c7c7e60405160405180910390a250565b6122cd8160006123e390919063ffffffff16565b8073ffffffffffffffffffffffffffffffffffffffff167f6719d08c1888103bea251a4ed56406bd0c3e69723c8a1686e017e7bbe159b6f860405160405180910390a250565b600080828401905083811015151561232a57600080fd5b8091505092915050565b600073ffffffffffffffffffffffffffffffffffffffff168173ffffffffffffffffffffffffffffffffffffffff161415151561237057600080fd5b61237a82826121cb565b151561238557600080fd5b60008260000160008373ffffffffffffffffffffffffffffffffffffffff1673ffffffffffffffffffffffffffffffffffffffff16815260200190815260200160002060006101000a81548160ff0219169083151502179055505050565b600073ffffffffffffffffffffffffffffffffffffffff168173ffffffffffffffffffffffffffffffffffffffff161415151561241f57600080fd5b61242982826121cb565b15151561243557600080fd5b60018260000160008373ffffffffffffffffffffffffffffffffffffffff1673ffffffffffffffffffffffffffffffffffffffff16815260200190815260200160002060006101000a81548160ff0219169083151502179055505050565b600080823b90506000811191505091905056fea165627a7a72305820920d510188ebd4748395f9fb89ea9099450b9edc697bc6838308fbd8c8907a3e0029",
  "source": "pragma solidity ^0.5.0;\n\nimport \"openzeppelin-solidity/contracts/token/ERC20/ERC20.sol\";\nimport \"openzeppelin-solidity/contracts/lifecycle/Pausable.sol\";\nimport \"openzeppelin-solidity/contracts/utils/Address.sol\";\nimport \"openzeppelin-solidity/contracts/math/SafeMath.sol\";\nimport \"openzeppelin-solidity/contracts/cryptography/ECDSA.sol\";\n\n/** @author santteegt\n  * @title SuportEth Subscription contract to a publisher content.\n  * @dev Based on the EIP-1337 spec\n  */\ncontract PublisherSubscription is Pausable {\n\n    /// Libraries\n    using Address for address;\n    using SafeMath for uint256;\n    using ECDSA for bytes32;\n\n    /// Subscriber address\n    address public subscriber;\n\n    /// Subscription status\n    enum SubscriptionStatus {\n        /// Active Subscription\n        ACTIVE,\n        /// Subscriber does not have enough funds (Unused)\n        INACTIVE,\n        /// Subscriber cancelled the subscription\n        CANCELLED\n    }\n\n    /// Subscription status\n    SubscriptionStatus public subStatus;\n\n    /// Next valid timestamp to process subscription\n    /// Similar to a nonce that avoids replay attack\n    /// subscriptionHash  => next valid block number in terms of timestamp\n    mapping(bytes32 => uint256) public nextValidTimestamp;\n\n    /// Subscription settings\n    struct Settings {\n        /// publisher contract\n        address publisher;\n        /// token address to process subscription payments\n        address tokenAddress;\n        /// subscription token amount\n        uint256 tokenAmount;\n        /// subscription period in seconds\n        uint256 subscriptionPeriod;\n    }\n\n    /// Subscription configuration\n    Settings public settings;\n\n    /// Event fired when subscription payment has been executed\n    event ExecuteSubscription(\n        address indexed subscriber, //subscriber\n        address indexed publisher, //publisher\n        address tokenAddress, //token address\n        uint256 tokenAmount, //token amount\n        uint256 subscriptionPeriod, //subscription period in seconds between payments\n        uint256 gasPrice //the amount of tokens to pay relayer\n    );\n\n    /// Event fired when subscription is cancelled\n    event CancelSubscription(\n        address indexed subscriber, //subscriber\n        address indexed publisher, //publisher\n        address tokenAddress, //token address\n        uint256 tokenAmount, //token amount\n        uint256 subscriptionPeriod //subscription period in seconds between payments\n    );\n\n    /// Validate if an address belong to a Contract account\n    modifier isContract(address _addr) {\n        require(_addr.isContract());\n        _;\n    }\n\n    /// Validate if contract function caller is the owner\n    modifier onlyOwner() {\n        require(msg.sender == subscriber);\n        _;\n    }\n\n    /// Validate if publisher is calling a method\n    modifier onlyPublisher() {\n        require(msg.sender == settings.publisher);\n        _;\n    }\n\n    /// Validate if the subscription is not cancelled\n    modifier subscriptionNotCancelled() {\n        require(subStatus != SubscriptionStatus.CANCELLED, \"Subscription is cancelled\");\n        _;\n    }\n\n    /**\n      * @dev Contract constructor\n      * @param _publisher Publisher Contract\n      * @param _tokenAddress Token address\n      * @param _tokenAmount token amount to pay\n      * @param _subscriptionPeriod subscription period\n      */\n    constructor(\n        address _publisher,\n        address _tokenAddress,\n        uint256 _tokenAmount,\n        uint256 _subscriptionPeriod\n        ) public isContract(_publisher) isContract(_tokenAddress) {\n\n            subscriber = msg.sender;\n            settings = Settings(\n                _publisher,\n                _tokenAddress,\n                _tokenAmount,\n                _subscriptionPeriod);\n\n    }\n\n    /** @dev Executes subscription payment\n      * @param _subscriber Subscriber address\n      * @param _publisher Publisher address\n      * @param _tokenAddress Token address\n      * @param _tokenAmount Token amount\n      * @param _subscriptionPeriod Subscription period in seconds\n      * @param _signature Proof the subscriber signed the meta trasaction\n      * @return bool true if processed\n      */\n    function executeSubscription(\n        address _subscriber,\n        address _publisher,\n        address _tokenAddress,\n        uint256 _tokenAmount,\n        uint256 _subscriptionPeriod,\n        bytes memory _signature\n    ) public\n        whenNotPaused\n        subscriptionNotCancelled\n        returns (bool success) {\n\n        // Validate subscription\n        // pulled this out so I have the hash, should be exact code as \"isSubscriptionReady\"\n        bytes32 subscriptionHash = getSubscriptionHash(\n            _subscriber, _publisher, _tokenAddress,\n            _tokenAmount, _subscriptionPeriod);\n        address signer = getSubscriptionSigner(subscriptionHash, _signature);\n\n        require(_subscriber == signer, \"Invalid Signature\");\n        require(block.timestamp >= nextValidTimestamp[subscriptionHash], \"Subscription is not ready\");\n\n        // if there are requirements from the deployer, let's make sure\n        // those are met exactly\n        // require(settings.publisher == address(0x0) || settings.publisher == _publisher);\n        // require(settings.tokenAddress == address(0x0) || settings.tokenAddress == _tokenAddress);\n        // require(settings.tokenAmount == 0 || settings.tokenAmount == _tokenAmount);\n        // require(settings.subscriptionPeriod == 0 || settings.subscriptionPeriod == _subscriptionPeriod);\n        // require( requiredGasPrice == 0 || gasPrice == requiredGasPrice );\n\n        //increment the timestamp by the period so it wont be valid until then\n        nextValidTimestamp[subscriptionHash] = block.timestamp.add(settings.subscriptionPeriod);\n\n        // now, let make the transfer from the subscriber to the publisher\n        uint256 startingBalance = ERC20(_tokenAddress).balanceOf(_publisher);\n        require(ERC20(_tokenAddress).transferFrom(_subscriber, _publisher, _tokenAmount), \"Transfer Failed\");\n        require((startingBalance + _tokenAmount) == ERC20(_tokenAddress).balanceOf(_publisher), \"Fatal error during Token Transfer\");\n\n        uint256 gasPrice = 0; //TODO: include incentives to Relayers based on Oracle and ETH current prize\n\n        emit ExecuteSubscription(\n            _subscriber, _publisher, _tokenAddress,\n            _tokenAmount, _subscriptionPeriod, gasPrice\n        );\n\n        // it is possible for the subscription execution to be run by a third party\n        // incentivized in the terms of the subscription with a gasPrice of the tokens\n        //  - pay that out now...\n        if (gasPrice > 0) {\n            //the relayer is incentivized by a little of the same token from\n            // the subscriber ... as far as the subscriber knows, they are\n            // just sending X tokens to the publisher, but the publisher can\n            // choose to send Y of those X to a relayer to run their transactions\n            // the publisher will receive X - Y tokens\n            // this must all be setup in the constructor\n            // if not, the subscriber chooses all the params including what goes\n            // to the publisher and what goes to the relayer\n\n            require(ERC20(_tokenAddress).transferFrom(_subscriber, msg.sender, gasPrice), \"Failed to pay incentive gas token to the relayer\");\n        }\n\n        return true;\n    }\n\n    /** @dev Check if a subscription is signed correctly and ready for next execution\n      * @param _subscriber Subscriber address\n      * @param _publisher Publisher address\n      * @param _tokenAddress Token address\n      * @param _tokenAmount Token amount\n      * @param _subscriptionPeriod Subscription period in seconds\n      * @param _signature Proof the subscriber signed the meta trasaction\n      * @return bool true if subscription is ready for payment processing\n      */\n    function isSubscriptionReady(\n        address _subscriber,\n        address _publisher,\n        address _tokenAddress,\n        uint256 _tokenAmount,\n        uint256 _subscriptionPeriod,\n        bytes memory _signature)\n        public view returns (bool) {\n\n        bytes32 subscriptionHash = getSubscriptionHash(\n            _subscriber, _publisher, _tokenAddress,\n            _tokenAmount, _subscriptionPeriod);\n        address signer = getSubscriptionSigner(subscriptionHash, _signature);\n\n        uint256 allowance = ERC20(_tokenAddress).allowance(_subscriber, address(this));\n        uint256 balance = ERC20(_tokenAddress).balanceOf(_subscriber);\n\n        return (\n            signer == _subscriber &&\n            _subscriber != _publisher &&\n            block.timestamp >= nextValidTimestamp[subscriptionHash] &&\n            allowance >= _tokenAmount &&\n            balance >= _tokenAmount\n        );\n    }\n\n    /** @dev Explicitly cancel the subscription\n      * @notice Subscriber can cancel a subscription any time by not having funds\n      * @param _subscriber Subscriber address\n      * @param _publisher Publisher address\n      * @param _tokenAddress Token address\n      * @param _tokenAmount Token amount\n      * @param _subscriptionPeriod Subscription period in seconds\n      * @param _signature Proof the subscriber signed the meta trasaction\n      * @return success true if processed\n      */\n    function cancelSubscription(\n        address _subscriber,\n        address _publisher,\n        address _tokenAddress,\n        uint256 _tokenAmount,\n        uint256 _subscriptionPeriod,\n        bytes memory _signature)\n        public onlyOwner subscriptionNotCancelled\n        returns (bool success) {\n\n        bytes32 subscriptionHash = getSubscriptionHash(\n            _subscriber, _publisher, _tokenAddress,\n            _tokenAmount, _subscriptionPeriod);\n        address signer = getSubscriptionSigner(subscriptionHash, _signature);\n\n        require(signer == _subscriber, \"Invalid Signature\");\n\n        /// Perform an Integer underflow\n        /// that date will never be reached during human existence\n        nextValidTimestamp[subscriptionHash] = uint256(-1);\n        /// To allow easy queries for subscription status\n        subStatus = SubscriptionStatus.CANCELLED;\n\n        emit CancelSubscription(\n            _subscriber, _publisher, _tokenAddress,\n            _tokenAmount, _subscriptionPeriod);\n\n        return true;\n    }\n\n    /** @dev Generates a hash following the EIP-191 and EIP-1077 standards\n      * @param _subscriber Subscriber address\n      * @param _publisher Publisher address\n      * @param _tokenAddress Token address\n      * @param _tokenAmount Token amount\n      * @param _subscriptionPeriod Subscription period in seconds\n      * @return bytes32 hash from subscription data\n      */\n    function getSubscriptionHash(\n        address _subscriber,\n        address _publisher,\n        address _tokenAddress,\n        uint256 _tokenAmount,\n        uint256 _subscriptionPeriod\n    ) public view returns (bytes32) {\n        return keccak256(\n            abi.encodePacked(\n                byte(0x19),\n                byte(0),\n                address(this),\n                _subscriber,\n                _publisher,\n                _tokenAddress,\n                _tokenAmount,\n                _subscriptionPeriod));\n    }\n\n    /** @dev Executes the ecrecover to get the signer from hash and signature\n      * @param _subscriptionHash Hash of subscription\n      * @param _signature Proof the subscriber signed the meta trasaction\n      * @return address signer address\n      */\n    function getSubscriptionSigner(bytes32 _subscriptionHash, bytes memory _signature)\n        public pure returns (address) {\n        return _subscriptionHash.toEthSignedMessageHash().recover(_signature);\n    }\n\n    /**\n     * @dev Low lever version of getSubscriptionSigner method\n     * @notice This function is only intended to show some knowledge on LLL code\n     * @param _subscriptionHash Hash of subscription\n     * @param _signature Proof the subscriber signed the meta trasaction\n     * @return address signer address\n     */\n    function _getSigner(bytes32 _subscriptionHash, bytes memory _signature)\n        public pure returns (address) {\n\n        bytes32 r;\n        bytes32 s;\n        uint8 v;\n        if (_signature.length != 65) {\n            return address(0x0);\n        }\n        assembly {\n            r := mload(add(_signature, 32))\n            s := mload(add(_signature, 64))\n            v := byte(0, mload(add(_signature, 96)))\n        }\n        if (v < 27) {\n            v += 27;\n        }\n        if (v != 27 && v != 28) {\n            return address(0x0);\n        } else {\n            return ecrecover(\n                keccak256(\n                    abi.encodePacked(\"\\x19Ethereum Signed Message:\\n32\",\n                    _subscriptionHash)\n                ),\n            v, r, s);\n        }\n    }\n\n    /**\n     * @dev Used by external smart contracts to verify on-chain that a\n     * particular subscription is \"paid\" and \"active\"\n     * @param _subscriptionHash subscription hash\n     * @param _subscriptionPeriod subscription period in seconds\n     * @return bool true if subscription is active\n     */\n    function isSubscriptionActive(bytes32 _subscriptionHash, uint256 _subscriptionPeriod)\n        view external returns (bool) {\n        return (block.timestamp\n                <=\n                nextValidTimestamp[_subscriptionHash].add(_subscriptionPeriod)\n                );\n    }\n\n    /// @dev Get subscription settings\n    /// @return (address, address, uint256, uint256) Subscription settings\n    function getSettings() external view onlyOwner\n        returns (address, address, uint256, uint256) {\n            return (settings.publisher,\n                settings.tokenAddress,\n                settings.tokenAmount,\n                settings.subscriptionPeriod);\n    }\n\n    // function getSubscriptionAmount() public view onlyPublisher() returns (uint256) {\n    /// @dev Get subscription amount\n    /// @return uint256 subscription amount\n    function getSubscriptionAmount() public view returns (uint256) {\n        return settings.tokenAmount;\n    }\n\n    /// @dev This contract does not receive Ether\n    // function() external payable {\n    //     revert();\n    // }\n\n}\n",
  "sourcePath": "/Users/santteegt/Consensys-Academy/Resources/Final project/truffle-react/contracts/PublisherSubscription.sol",
  "compiler": {
    "name": "solc",
    "version": "0.5.0+commit.1d4f565a.Emscripten.clang"
  },
  "schemaVersion": "3.0.1",
  "updatedAt": "2019-01-28T00:19:28.881Z",
  "devdoc": {
    "author": "santteegt",
    "details": "Based on the EIP-1337 spec",
    "methods": {
      "_getSigner(bytes32,bytes)": {
        "details": "Low lever version of getSubscriptionSigner method",
        "params": {
          "_signature": "Proof the subscriber signed the meta trasaction",
          "_subscriptionHash": "Hash of subscription"
        },
        "return": "address signer address"
      },
      "cancelSubscription(address,address,address,uint256,uint256,bytes)": {
        "details": "Explicitly cancel the subscription",
        "params": {
          "_publisher": "Publisher address",
          "_signature": "Proof the subscriber signed the meta trasaction",
          "_subscriber": "Subscriber address",
          "_subscriptionPeriod": "Subscription period in seconds",
          "_tokenAddress": "Token address",
          "_tokenAmount": "Token amount"
        },
        "return": "success true if processed"
      },
      "constructor": {
        "details": "Contract constructor",
        "params": {
          "_publisher": "Publisher Contract",
          "_subscriptionPeriod": "subscription period",
          "_tokenAddress": "Token address",
          "_tokenAmount": "token amount to pay"
        }
      },
      "executeSubscription(address,address,address,uint256,uint256,bytes)": {
        "details": "Executes subscription payment",
        "params": {
          "_publisher": "Publisher address",
          "_signature": "Proof the subscriber signed the meta trasaction",
          "_subscriber": "Subscriber address",
          "_subscriptionPeriod": "Subscription period in seconds",
          "_tokenAddress": "Token address",
          "_tokenAmount": "Token amount"
        },
        "return": "bool true if processed"
      },
      "getSettings()": {
        "details": "Get subscription settings",
        "return": "(address, address, uint256, uint256) Subscription settings"
      },
      "getSubscriptionAmount()": {
        "details": "Get subscription amount",
        "return": "uint256 subscription amount"
      },
      "getSubscriptionHash(address,address,address,uint256,uint256)": {
        "details": "Generates a hash following the EIP-191 and EIP-1077 standards",
        "params": {
          "_publisher": "Publisher address",
          "_subscriber": "Subscriber address",
          "_subscriptionPeriod": "Subscription period in seconds",
          "_tokenAddress": "Token address",
          "_tokenAmount": "Token amount"
        },
        "return": "bytes32 hash from subscription data"
      },
      "getSubscriptionSigner(bytes32,bytes)": {
        "details": "Executes the ecrecover to get the signer from hash and signature",
        "params": {
          "_signature": "Proof the subscriber signed the meta trasaction",
          "_subscriptionHash": "Hash of subscription"
        },
        "return": "address signer address"
      },
      "isSubscriptionActive(bytes32,uint256)": {
        "details": "Used by external smart contracts to verify on-chain that a particular subscription is \"paid\" and \"active\"",
        "params": {
          "_subscriptionHash": "subscription hash",
          "_subscriptionPeriod": "subscription period in seconds"
        },
        "return": "bool true if subscription is active"
      },
      "isSubscriptionReady(address,address,address,uint256,uint256,bytes)": {
        "details": "Check if a subscription is signed correctly and ready for next execution",
        "params": {
          "_publisher": "Publisher address",
          "_signature": "Proof the subscriber signed the meta trasaction",
          "_subscriber": "Subscriber address",
          "_subscriptionPeriod": "Subscription period in seconds",
          "_tokenAddress": "Token address",
          "_tokenAmount": "Token amount"
        },
        "return": "bool true if subscription is ready for payment processing"
      },
      "pause()": {
        "details": "called by the owner to pause, triggers stopped state"
      },
      "paused()": {
        "return": "true if the contract is paused, false otherwise."
      },
      "unpause()": {
        "details": "called by the owner to unpause, returns to normal state"
      }
    },
    "title": "SuportEth Subscription contract to a publisher content."
  },
  "userdoc": {
    "methods": {
      "_getSigner(bytes32,bytes)": {
        "notice": "This function is only intended to show some knowledge on LLL code"
      },
      "cancelSubscription(address,address,address,uint256,uint256,bytes)": {
        "notice": "Subscriber can cancel a subscription any time by not having funds"
      }
    }
  }
}