{
  "contractName": "SEUpgradabilityProxy",
  "abi": [
    {
      "inputs": [],
      "payable": false,
      "stateMutability": "nonpayable",
      "type": "constructor"
    },
    {
      "payable": true,
      "stateMutability": "payable",
      "type": "fallback"
    },
    {
      "anonymous": false,
      "inputs": [
        {
          "indexed": true,
          "name": "implementation",
          "type": "address"
        }
      ],
      "name": "Upgraded",
      "type": "event"
    },
    {
      "constant": true,
      "inputs": [],
      "name": "implementation",
      "outputs": [
        {
          "name": "impl",
          "type": "address"
        }
      ],
      "payable": false,
      "stateMutability": "view",
      "type": "function"
    }
  ],
  "bytecode": "0x608060405234801561001057600080fd5b5061019c806100206000396000f3fe608060405260043610610041576000357c0100000000000000000000000000000000000000000000000000000000900463ffffffff1680635c60da1b146100b0575b600061004b610107565b9050600073ffffffffffffffffffffffffffffffffffffffff168173ffffffffffffffffffffffffffffffffffffffff161415151561008957600080fd5b60405136600082376000803683855af43d806000843e81600081146100ac578184f35b8184fd5b3480156100bc57600080fd5b506100c5610107565b604051808273ffffffffffffffffffffffffffffffffffffffff1673ffffffffffffffffffffffffffffffffffffffff16815260200191505060405180910390f35b60008060405180807f6f72672e7a657070656c696e6f732e73652e70726f78792e696d706c656d656e81526020017f746174696f6e000000000000000000000000000000000000000000000000000081525060260190506040518091039020905080549150509056fea165627a7a7230582062d4d1a637f09c8ec8b073f369abe09804a7729677dea6938cc8d59d31f500110029",
  "source": "pragma solidity ^0.5.0;\n\nimport './SEProxy.sol';\n\n/**\n * @title UpgradeabilityProxy\n * @dev This contract represents a proxy where the implementation address to which it will delegate can be upgraded\n */\ncontract SEUpgradabilityProxy is SEProxy {\n\n  /**\n   * @dev This event will be emitted every time the implementation gets upgraded\n   * @param implementation representing the address of the upgraded implementation\n   */\n  event Upgraded(address indexed implementation);\n\n  /// Storage position of the address of the current implementation\n  bytes32 private constant implementationPosition = keccak256(\"org.zeppelinos.se.proxy.implementation\");\n\n  /**\n   * @dev Constructor function\n   */\n  constructor() public {}\n\n  /**\n   * @dev Tells the address of the current implementation\n   * @return address of the current implementation\n   */\n  function implementation() public view returns (address impl) {\n    bytes32 position = implementationPosition;\n    assembly {\n      impl := sload(position)\n    }\n  }\n\n  /**\n   * @dev Sets the address of the current implementation\n   * @param newImplementation address representing the new implementation to be set\n   */\n  function setImplementation(address newImplementation) internal {\n    bytes32 position = implementationPosition;\n    assembly {\n      sstore(position, newImplementation)\n    }\n  }\n\n  /**\n   * @dev Upgrades the implementation address\n   * @param newImplementation representing the address of the new implementation to be set\n   */\n  function _upgradeTo(address newImplementation) internal {\n    address currentImplementation = implementation();\n    require(currentImplementation != newImplementation);\n    setImplementation(newImplementation);\n    emit Upgraded(newImplementation);\n  }\n}\n",
  "sourcePath": "/Users/santteegt/Consensys-Academy/Resources/Final project/truffle-react/contracts/SEUpgradabilityProxy.sol",
  "compiler": {
    "name": "solc",
    "version": "0.5.0+commit.1d4f565a.Emscripten.clang"
  },
  "schemaVersion": "3.0.1",
  "updatedAt": "2019-01-27T23:41:16.100Z",
  "devdoc": {
    "details": "This contract represents a proxy where the implementation address to which it will delegate can be upgraded",
    "methods": {
      "constructor": {
        "details": "Constructor function"
      },
      "implementation()": {
        "details": "Tells the address of the current implementation",
        "return": "address of the current implementation"
      }
    },
    "title": "UpgradeabilityProxy"
  },
  "userdoc": {
    "methods": {}
  }
}