{
  "contractName": "Supporteth_V0",
  "abi": [
    {
      "constant": true,
      "inputs": [
        {
          "name": "",
          "type": "address"
        }
      ],
      "name": "publishers",
      "outputs": [
        {
          "name": "",
          "type": "address"
        }
      ],
      "payable": false,
      "stateMutability": "view",
      "type": "function",
      "signature": "0x0a4d85cd"
    },
    {
      "constant": true,
      "inputs": [
        {
          "name": "",
          "type": "address"
        }
      ],
      "name": "relayers",
      "outputs": [
        {
          "name": "active",
          "type": "bool"
        },
        {
          "name": "expendedGas",
          "type": "uint256"
        }
      ],
      "payable": false,
      "stateMutability": "view",
      "type": "function",
      "signature": "0x5300f841"
    },
    {
      "constant": true,
      "inputs": [
        {
          "name": "",
          "type": "address"
        }
      ],
      "name": "subscribers",
      "outputs": [
        {
          "name": "",
          "type": "address"
        }
      ],
      "payable": false,
      "stateMutability": "view",
      "type": "function",
      "signature": "0x5745ae28"
    },
    {
      "constant": false,
      "inputs": [],
      "name": "renounceOwnership",
      "outputs": [],
      "payable": false,
      "stateMutability": "nonpayable",
      "type": "function",
      "signature": "0x715018a6"
    },
    {
      "constant": true,
      "inputs": [],
      "name": "owner",
      "outputs": [
        {
          "name": "",
          "type": "address"
        }
      ],
      "payable": false,
      "stateMutability": "view",
      "type": "function",
      "signature": "0x8da5cb5b"
    },
    {
      "constant": true,
      "inputs": [],
      "name": "isOwner",
      "outputs": [
        {
          "name": "",
          "type": "bool"
        }
      ],
      "payable": false,
      "stateMutability": "view",
      "type": "function",
      "signature": "0x8f32d59b"
    },
    {
      "constant": false,
      "inputs": [
        {
          "name": "newOwner",
          "type": "address"
        }
      ],
      "name": "transferOwnership",
      "outputs": [],
      "payable": false,
      "stateMutability": "nonpayable",
      "type": "function",
      "signature": "0xf2fde38b"
    },
    {
      "inputs": [],
      "payable": false,
      "stateMutability": "nonpayable",
      "type": "constructor",
      "signature": "constructor"
    },
    {
      "anonymous": false,
      "inputs": [
        {
          "indexed": true,
          "name": "previousOwner",
          "type": "address"
        },
        {
          "indexed": true,
          "name": "newOwner",
          "type": "address"
        }
      ],
      "name": "OwnershipTransferred",
      "type": "event",
      "signature": "0x8be0079c531659141344cd1fd0a4f28419497f9722a3daafe3b4186f6b6457e0"
    },
    {
      "constant": false,
      "inputs": [
        {
          "name": "_owner",
          "type": "address"
        }
      ],
      "name": "initialize",
      "outputs": [],
      "payable": false,
      "stateMutability": "nonpayable",
      "type": "function",
      "signature": "0xc4d66de8"
    },
    {
      "constant": false,
      "inputs": [
        {
          "name": "_pubContract",
          "type": "address"
        }
      ],
      "name": "addPublisher",
      "outputs": [],
      "payable": false,
      "stateMutability": "nonpayable",
      "type": "function",
      "signature": "0x763f323d"
    },
    {
      "constant": false,
      "inputs": [
        {
          "name": "_subContract",
          "type": "address"
        }
      ],
      "name": "addSubscriber",
      "outputs": [],
      "payable": false,
      "stateMutability": "nonpayable",
      "type": "function",
      "signature": "0x94555d1a"
    },
    {
      "constant": false,
      "inputs": [
        {
          "name": "_relayer",
          "type": "address"
        }
      ],
      "name": "addRelayer",
      "outputs": [],
      "payable": false,
      "stateMutability": "nonpayable",
      "type": "function",
      "signature": "0xdd39f00d"
    },
    {
      "constant": false,
      "inputs": [
        {
          "name": "_relayer",
          "type": "address"
        }
      ],
      "name": "removeRelayer",
      "outputs": [],
      "payable": false,
      "stateMutability": "nonpayable",
      "type": "function",
      "signature": "0x60f0a5ac"
    },
    {
      "constant": false,
      "inputs": [
        {
          "name": "_relayer",
          "type": "address"
        },
        {
          "name": "_expendedGas",
          "type": "uint256"
        }
      ],
      "name": "sumExpendedGas",
      "outputs": [],
      "payable": false,
      "stateMutability": "nonpayable",
      "type": "function",
      "signature": "0xdb8ea6a6"
    }
  ],
  "bytecode": "0x608060405234801561001057600080fd5b50336000806101000a81548173ffffffffffffffffffffffffffffffffffffffff021916908373ffffffffffffffffffffffffffffffffffffffff1602179055506000809054906101000a900473ffffffffffffffffffffffffffffffffffffffff1673ffffffffffffffffffffffffffffffffffffffff16600073ffffffffffffffffffffffffffffffffffffffff167f8be0079c531659141344cd1fd0a4f28419497f9722a3daafe3b4186f6b6457e060405160405180910390a3611059806100dc6000396000f3fe6080604052600436106100c5576000357c0100000000000000000000000000000000000000000000000000000000900463ffffffff1680630a4d85cd146100ca5780635300f8411461015b5780635745ae28146101cb57806360f0a5ac1461025c578063715018a6146102ad578063763f323d146102c45780638da5cb5b146103155780638f32d59b1461036c57806394555d1a1461039b578063c4d66de8146103ec578063db8ea6a61461043d578063dd39f00d14610498578063f2fde38b146104e9575b600080fd5b3480156100d657600080fd5b50610119600480360360208110156100ed57600080fd5b81019080803573ffffffffffffffffffffffffffffffffffffffff16906020019092919050505061053a565b604051808273ffffffffffffffffffffffffffffffffffffffff1673ffffffffffffffffffffffffffffffffffffffff16815260200191505060405180910390f35b34801561016757600080fd5b506101aa6004803603602081101561017e57600080fd5b81019080803573ffffffffffffffffffffffffffffffffffffffff16906020019092919050505061056d565b60405180831515151581526020018281526020019250505060405180910390f35b3480156101d757600080fd5b5061021a600480360360208110156101ee57600080fd5b81019080803573ffffffffffffffffffffffffffffffffffffffff16906020019092919050505061059e565b604051808273ffffffffffffffffffffffffffffffffffffffff1673ffffffffffffffffffffffffffffffffffffffff16815260200191505060405180910390f35b34801561026857600080fd5b506102ab6004803603602081101561027f57600080fd5b81019080803573ffffffffffffffffffffffffffffffffffffffff1690602001909291905050506105d1565b005b3480156102b957600080fd5b506102c2610709565b005b3480156102d057600080fd5b50610313600480360360208110156102e757600080fd5b81019080803573ffffffffffffffffffffffffffffffffffffffff1690602001909291905050506107db565b005b34801561032157600080fd5b5061032a6109f3565b604051808273ffffffffffffffffffffffffffffffffffffffff1673ffffffffffffffffffffffffffffffffffffffff16815260200191505060405180910390f35b34801561037857600080fd5b50610381610a1c565b604051808215151515815260200191505060405180910390f35b3480156103a757600080fd5b506103ea600480360360208110156103be57600080fd5b81019080803573ffffffffffffffffffffffffffffffffffffffff169060200190929190505050610a73565b005b3480156103f857600080fd5b5061043b6004803603602081101561040f57600080fd5b81019080803573ffffffffffffffffffffffffffffffffffffffff169060200190929190505050610c8b565b005b34801561044957600080fd5b506104966004803603604081101561046057600080fd5b81019080803573ffffffffffffffffffffffffffffffffffffffff16906020019092919080359060200190929190505050610cce565b005b3480156104a457600080fd5b506104e7600480360360208110156104bb57600080fd5b81019080803573ffffffffffffffffffffffffffffffffffffffff169060200190929190505050610d80565b005b3480156104f557600080fd5b506105386004803603602081101561050c57600080fd5b81019080803573ffffffffffffffffffffffffffffffffffffffff169060200190929190505050610ee0565b005b60016020528060005260406000206000915054906101000a900473ffffffffffffffffffffffffffffffffffffffff1681565b60036020528060005260406000206000915090508060000160009054906101000a900460ff16908060010154905082565b60026020528060005260406000206000915054906101000a900473ffffffffffffffffffffffffffffffffffffffff1681565b6105d9610a1c565b15156105e457600080fd5b600360008273ffffffffffffffffffffffffffffffffffffffff1673ffffffffffffffffffffffffffffffffffffffff16815260200190815260200160002060000160009054906101000a900460ff1615156106a8576040517f08c379a00000000000000000000000000000000000000000000000000000000081526004018080602001828103825260168152602001807f52656c6179657220646f6573206e6f742065786973740000000000000000000081525060200191505060405180910390fd5b600360008273ffffffffffffffffffffffffffffffffffffffff1673ffffffffffffffffffffffffffffffffffffffff168152602001908152602001600020600080820160006101000a81549060ff02191690556001820160009055505050565b610711610a1c565b151561071c57600080fd5b600073ffffffffffffffffffffffffffffffffffffffff166000809054906101000a900473ffffffffffffffffffffffffffffffffffffffff1673ffffffffffffffffffffffffffffffffffffffff167f8be0079c531659141344cd1fd0a4f28419497f9722a3daafe3b4186f6b6457e060405160405180910390a360008060006101000a81548173ffffffffffffffffffffffffffffffffffffffff021916908373ffffffffffffffffffffffffffffffffffffffff160217905550565b806107fb8173ffffffffffffffffffffffffffffffffffffffff16610eff565b151561080657600080fd5b60008273ffffffffffffffffffffffffffffffffffffffff16638da5cb5b6040518163ffffffff167c010000000000000000000000000000000000000000000000000000000002815260040160206040518083038186803b15801561086a57600080fd5b505afa15801561087e573d6000803e3d6000fd5b505050506040513d602081101561089457600080fd5b810190808051906020019092919050505090503373ffffffffffffffffffffffffffffffffffffffff168173ffffffffffffffffffffffffffffffffffffffff16141515610970576040517f08c379a00000000000000000000000000000000000000000000000000000000081526004018080602001828103825260268152602001807f53656e64657220646f6573206e6f74206f776e205075626c697368657220636f81526020017f6e7472616374000000000000000000000000000000000000000000000000000081525060400191505060405180910390fd5b82600160008373ffffffffffffffffffffffffffffffffffffffff1673ffffffffffffffffffffffffffffffffffffffff16815260200190815260200160002060006101000a81548173ffffffffffffffffffffffffffffffffffffffff021916908373ffffffffffffffffffffffffffffffffffffffff160217905550505050565b60008060009054906101000a900473ffffffffffffffffffffffffffffffffffffffff16905090565b60008060009054906101000a900473ffffffffffffffffffffffffffffffffffffffff1673ffffffffffffffffffffffffffffffffffffffff163373ffffffffffffffffffffffffffffffffffffffff1614905090565b80610a938173ffffffffffffffffffffffffffffffffffffffff16610eff565b1515610a9e57600080fd5b60008273ffffffffffffffffffffffffffffffffffffffff166320e036306040518163ffffffff167c010000000000000000000000000000000000000000000000000000000002815260040160206040518083038186803b158015610b0257600080fd5b505afa158015610b16573d6000803e3d6000fd5b505050506040513d6020811015610b2c57600080fd5b810190808051906020019092919050505090503373ffffffffffffffffffffffffffffffffffffffff168173ffffffffffffffffffffffffffffffffffffffff16141515610c08576040517f08c379a00000000000000000000000000000000000000000000000000000000081526004018080602001828103825260268152602001807f53656e64657220646f6573206e6f74206f776e205075626c697368657220636f81526020017f6e7472616374000000000000000000000000000000000000000000000000000081525060400191505060405180910390fd5b82600260008373ffffffffffffffffffffffffffffffffffffffff1673ffffffffffffffffffffffffffffffffffffffff16815260200190815260200160002060006101000a81548173ffffffffffffffffffffffffffffffffffffffff021916908373ffffffffffffffffffffffffffffffffffffffff160217905550505050565b600060149054906101000a900460ff16151515610ca757600080fd5b610cb081610ee0565b6001600060146101000a81548160ff02191690831515021790555050565b610cd6610a1c565b1515610ce157600080fd5b610d3681600360008573ffffffffffffffffffffffffffffffffffffffff1673ffffffffffffffffffffffffffffffffffffffff16815260200190815260200160002060010154610f1290919063ffffffff16565b600360008473ffffffffffffffffffffffffffffffffffffffff1673ffffffffffffffffffffffffffffffffffffffff168152602001908152602001600020600101819055505050565b610d88610a1c565b1515610d9357600080fd5b600360008273ffffffffffffffffffffffffffffffffffffffff1673ffffffffffffffffffffffffffffffffffffffff16815260200190815260200160002060000160009054906101000a900460ff16151515610e58576040517f08c379a000000000000000000000000000000000000000000000000000000000815260040180806020018281038252601a8152602001807f52656c6179657220616c7265616479207265676973746572656400000000000081525060200191505060405180910390fd5b60408051908101604052806001151581526020016000815250600360008373ffffffffffffffffffffffffffffffffffffffff1673ffffffffffffffffffffffffffffffffffffffff16815260200190815260200160002060008201518160000160006101000a81548160ff0219169083151502179055506020820151816001015590505050565b610ee8610a1c565b1515610ef357600080fd5b610efc81610f33565b50565b600080823b905060008111915050919050565b6000808284019050838110151515610f2957600080fd5b8091505092915050565b600073ffffffffffffffffffffffffffffffffffffffff168173ffffffffffffffffffffffffffffffffffffffff1614151515610f6f57600080fd5b8073ffffffffffffffffffffffffffffffffffffffff166000809054906101000a900473ffffffffffffffffffffffffffffffffffffffff1673ffffffffffffffffffffffffffffffffffffffff167f8be0079c531659141344cd1fd0a4f28419497f9722a3daafe3b4186f6b6457e060405160405180910390a3806000806101000a81548173ffffffffffffffffffffffffffffffffffffffff021916908373ffffffffffffffffffffffffffffffffffffffff1602179055505056fea165627a7a72305820f2e122238257837a0d6f068784ec52ed2303646e5b155597491862264ca3dea40029",
  "source": "pragma solidity ^0.5.0;\n\nimport \"openzeppelin-solidity/contracts/ownership/Ownable.sol\";\nimport \"openzeppelin-solidity/contracts/utils/Address.sol\";\nimport \"openzeppelin-solidity/contracts/math/SafeMath.sol\";\nimport \"./PublisherSubscription.sol\";\nimport \"./Publisher.sol\";\nimport \"./SupportethToken.sol\";\n\n// contract Supporteth_V0 is Ownable, SupportEthToken {\n/// @title Supporteth smart contract\n/// @dev Holds system data\ncontract Supporteth_V0 is Ownable {\n\n    /// Libraries\n    using Address for address;\n    using SafeMath for uint256;\n\n    /// To check if contract was already initialized by an upgradable proxy\n    bool internal _initialized;\n\n    /// List of publishers\n    /// EOAAddress => address(Publisher)\n    mapping(address => address) public publishers;\n\n    /// List of subscribers\n    /// EOAAddress => address(PublisherSubscription)\n    mapping(address => address) public subscribers;\n\n    /// System relayer properties\n    struct Relayer {\n        bool active;\n        uint256 expendedGas;\n    }\n\n    /// Relayer expended Gas\n    /// relayerAddress => expendedGas\n    mapping(address => Relayer) public relayers;\n\n    /// Validate if an address belong to a Contract account\n    modifier isContract(address _addr) {\n        require(_addr.isContract());\n        _;\n    }\n\n    /// Validate if msg.sender is the Owner of the PublisherSubscription contract\n    modifier isSubscriptionOwner(address _addr) {\n        require(PublisherSubscription(_addr).subscriber() == msg.sender);\n        _;\n    }\n\n    constructor() public {\n\n    }\n\n    /**\n     * @dev Initialize method to set the owner when using a Upgradable proxy\n     * @param _owner address of the owner of the contract\n     */\n    function initialize(address _owner) public {\n        require(!_initialized);\n        transferOwnership(_owner);\n        _initialized = true;\n\n\n    }\n\n    /**\n     * @dev register a Publisher into the system\n     * @param _pubContract Publisher contract address\n     */\n    function addPublisher(address _pubContract) public isContract(_pubContract) {\n            address owner = Publisher(_pubContract).owner();\n            require(owner == msg.sender, \"Sender does not own Publisher contract\");\n            publishers[owner] = _pubContract;\n    }\n\n    /**\n     * @dev register a Subscriber into the system\n     * @param _subContract PublisherSubscription contract address\n     */\n    function addSubscriber(address _subContract) public isContract(_subContract) {\n            address owner = PublisherSubscription(_subContract).subscriber();\n            require(owner == msg.sender, \"Sender does not own Publisher contract\");\n            subscribers[owner] = _subContract;\n    }\n\n    /**\n     * @dev Register a relayer to process transactions for onboarding\n     * @notice a relayer can be used to process trx of new users with no ether\n     * @ @param _relayer Relayer account address\n     */\n    function addRelayer(address _relayer) public onlyOwner {\n        require(!relayers[_relayer].active, \"Relayer already registered\");\n        relayers[_relayer] = Relayer(true, 0);\n    }\n\n    /**\n     * @dev Remove a relayer from the registry\n     * @param _relayer Relayer account address\n     */\n    function removeRelayer(address _relayer) public onlyOwner {\n        require(relayers[_relayer].active, \"Relayer does not exist\");\n        delete relayers[_relayer];\n    }\n\n    /**\n     * @dev sum gas expended by a relayer\n     * @param _relayer Relayer account address\n     * @param _expendedGas expended Gas on a relayed trx\n     */\n    function sumExpendedGas(address _relayer, uint256 _expendedGas) public onlyOwner {\n        relayers[_relayer].expendedGas = relayers[_relayer].expendedGas.add(_expendedGas);\n    }\n\n    // function() external payable {\n\n    // }\n\n}\n",
  "sourcePath": "/Users/santteegt/Consensys-Academy/Resources/Final project/truffle-react/contracts/Supporteth_V0.sol",
  "compiler": {
    "name": "solc",
    "version": "0.5.0+commit.1d4f565a.Emscripten.clang"
  },
  "schemaVersion": "3.0.1",
  "updatedAt": "2019-01-28T00:19:28.861Z",
  "devdoc": {
    "details": "Holds system data",
    "methods": {
      "addPublisher(address)": {
        "details": "register a Publisher into the system",
        "params": {
          "_pubContract": "Publisher contract address"
        }
      },
      "addRelayer(address)": {
        "details": "Register a relayer to process transactions for onboarding"
      },
      "addSubscriber(address)": {
        "details": "register a Subscriber into the system",
        "params": {
          "_subContract": "PublisherSubscription contract address"
        }
      },
      "initialize(address)": {
        "details": "Initialize method to set the owner when using a Upgradable proxy",
        "params": {
          "_owner": "address of the owner of the contract"
        }
      },
      "isOwner()": {
        "return": "true if `msg.sender` is the owner of the contract."
      },
      "owner()": {
        "return": "the address of the owner."
      },
      "removeRelayer(address)": {
        "details": "Remove a relayer from the registry",
        "params": {
          "_relayer": "Relayer account address"
        }
      },
      "renounceOwnership()": {
        "details": "Allows the current owner to relinquish control of the contract."
      },
      "sumExpendedGas(address,uint256)": {
        "details": "sum gas expended by a relayer",
        "params": {
          "_expendedGas": "expended Gas on a relayed trx",
          "_relayer": "Relayer account address"
        }
      },
      "transferOwnership(address)": {
        "details": "Allows the current owner to transfer control of the contract to a newOwner.",
        "params": {
          "newOwner": "The address to transfer ownership to."
        }
      }
    },
    "title": "Supporteth smart contract"
  },
  "userdoc": {
    "methods": {
      "addRelayer(address)": {
        "notice": "a relayer can be used to process trx of new users with no ether @param _relayer Relayer account address"
      },
      "renounceOwnership()": {
        "notice": "Renouncing to ownership will leave the contract without an owner. It will not be possible to call the functions with the `onlyOwner` modifier anymore."
      }
    }
  }
}